:020000040800F2
:1000000040210020390200082F320008E92C0008A6
:100010002D32000869150008753600080000000040
:10002000000000000000000000000000A101000826
:10003000AF15000800000000E5010008ED320008DF
:10004000530200085302000853020008530200083C
:10005000530200085302000853020008530200082C
:10006000530200085302000853020008530200081C
:100070006D150008791500085302000853020008A6
:1000800053020008530200085302000853020008FC
:1000900053020008530200085302000853020008EC
:1000A00053020008530200085302000853020008DC
:1000B0005302000853020008593300085302000895
:1000C00053020008530200085302000853020008BC
:1000D0005302000853020008530200086936000862
:1000E00053020008530200085302000800F002F80F
:1000F00000F047F80AA090E8000C82448344AAF17B
:100100000107DA4501D100F03CF8AFF2090EBAE878
:100110000F0013F0010F18BFFB1A43F0010318473B
:100120007855000098550000103A24BF78C878C16F
:10013000FAD8520724BF30C830C144BF04680C60ED
:10014000704700000023002400250026103A28BF35
:1001500078C1FBD8520728BF30C148BF0B60704739
:10016000662905F08681002070471FB500F044FC29
:1001700004000020002104F077FFE0601FBD10B5EF
:1001800010BD00F039FD1146FFF7EFFF03F09EFAB6
:1001900000F057FD03B4FFF7F2FF03BC00F09AFD37
:1001A000224B19680868B0E8F00F80F30988BFF3A4
:1001B0006F8F4FF0000080F311884EF00D0E7047E6
:1001C0000000000006480068006880F3088862B6F6
:1001D00061B6BFF34F8FBFF36F8F00DF00BF00BF6B
:1001E00008ED00E0EFF30980BFF36F8F0F4B1A6843
:1001F00020E9F00F106008B54FF0500080F311882F
:10020000BFF34F8FBFF36F8F04F0B8F94FF00000CA
:1002100080F31188BDE8084019680868B0E8F00F5D
:1002200080F30988BFF36F8F704700BF1C00002068
:10023000EFF30580704700000948804709480047F0
:10024000FEE7FEE7FEE7FEE7FEE7FEE7FEE7FEE786
:10025000FEE7FEE704480549054A064B70470000E3
:1002600057330008ED000008401B0020402100200B
:10027000401D0020401D00200FB41CB50C0007AA33
:10028000009001D02044401E074B7B4469460190FA
:10029000069800F03CFB002C03D06946002000F0DB
:1002A00049FB1CBC5DF814FBB10600002DE9F047CA
:1002B0004FF0000A89460446C0F820A02046E168B5
:1002C0008847002876D0252806D0D4E90121904718
:1002D000206A401C2062F1E7E1682046002588473B
:1002E000C4F81CA006460027C4F818A02A2E09D07E
:1002F000304603F0E4F938B304EB8708303EC8F821
:10030000186019E059F8041B204604EB870291613C
:10031000E1688847012F064618D1E069002820DAF5
:1003200025F020051DE0D8F8180000EB800006EB52
:1003300040003038C8F818002046E1688847064673
:1003400003F0BDF90028EED1012F0AD02E2E08D1DE
:100350002046E16888477F1C0646022F45F02005AD
:10036000C4DBA069002803DA404245F00105A06122
:10037000E80701D025F01005B6B1A6F14100192813
:1003800002D8203645F400654A46314620462560AD
:100390004D46FFF7E5FE58B1012806D0ED1D25F0CA
:1003A000070000F1080989E704E005F1040985E781
:1003B00030468AE7206ABDE8F08710B5431C02E0AA
:1003C00010F8011B71B18107FAD14FF0013202C858
:1003D0008C1A8C4314EAC211F9D0C01A0A0603D051
:1003E000C01E10BDC01A10BD0A0401D0801E10BD71
:1003F0000902FCD0401E10BD032A40F2308010F0EC
:10040000030C00F0158011F8013BBCF1020F6244AF
:1004100098BF11F801CB00F8013B38BF11F8013B40
:10042000A2F1040298BF00F801CB38BF00F8013BED
:1004300011F0030300F08B82083AC0F0088051F8F5
:10044000043B083A51F804CBA0E80810F5E7121D68
:100450005CBF51F8043B40F8043BAFF30080D20787
:1004600024BF11F8013B11F801CB48BF11F8012B53
:1004700024BF00F8013B00F801CB48BF00F8012B76
:10048000704702F0FF0343EA032242EA024200F00F
:1004900092BA4FF0000200B51346944696462039B2
:1004A00022BFA0E80C50A0E80C50B1F12001BFF42D
:1004B000F7AF090728BFA0E80C5048BF0CC05DF893
:1004C00004EB890028BF40F8042B08BF704748BFE1
:1004D00020F8022B11F0804F18BF00F8012B704755
:1004E00070477047704770472DE9FF4F0C461E4616
:1004F0004FF0FF378BB0D2E90001DDF860800A9041
:100500008A46C1F30A5505B93D46002108464FF019
:100510000000BAF1000F00F4400005DA00EB8000A3
:100520004FF4400101EA50004FEA9059B9F1010F30
:1005300000DDB9460A9850EA4A000ED044F6105041
:10054000A5F2FF3545432F14B8F1000F1ED07542B8
:10055000291E1EDDC9F100021CE0B8F1010F4FF0A9
:10056000000001D0302103E0F24305E02154401C9B
:10057000B042FBDB30460022002121540B99C1F828
:100580000880C1E900200FB0BDE8F08FBD1B6D1CD5
:10059000DEE74A4600DA694206A800F0B7FA06AB81
:1005A00093E8070003AB83E8070050460A9900F080
:1005B00098FB8DE80700A0F500501F3800900398C5
:1005C000002D0ADD42F21F014A460844002303A918
:1005D0000390684600F001FE09E0A0F500504A468D
:1005E0001F38002303A90390684600F00BFE8DE836
:1005F00007000004000C03D04FF0FF30410800E07A
:100600001046B8F1000F03D00022009215461EE0FC
:10061000751E05D400F0F4F9303262556D1EF9D51F
:10062000B3460122084302D000227F1C04E0207858
:10063000302801D100227F1E002A099784D01DE0B6
:10064000112D07DA00F0DCF9303262556D1C50EAEA
:100650000102F5D1084302D00098C8B10EE0002194
:10066000681E05E0235C625C63542254401E491CF2
:100670008142F7DBAB46A81B401E0990002004F81E
:100680000B000B98099AC0F80880C0E9002B7AE7A4
:1006900011264FF0000857E72DE9F04F8846044631
:1006A000D21D22F0070191B0D1E90001CDE90A0184
:1006B00002F0E1FF02460B98C00F01D02D2007E0A9
:1006C0002068810701D52B2002E0202101EAC0002B
:1006D000032A099001D0072A05DB0346414620463C
:1006E00000F0D4F90BE12078800601D5E06900E044
:1006F0000620B8F1650F814606D0B8F1660F18D014
:10070000B8F1670F70D131E00020B9F1110F0090FE
:1007100001DB112301E009F101030AAA01A90CA8D8
:10072000FFF7E2FEDDE90C70002609F101058346C2
:1007300047E001204B4600904FF000470AAA01A96C
:100740000CA8FFF7D1FEDDE90DB00C995D4600263F
:1007500010B909F101000D18B9EB050003D4C0F17F
:10076000FF3609F10105A5EB09002BE0B9F1010FF6
:1007700001DA4FF001090020B9F1110F009048464D
:1007800001DD112300E003460AAA01A90CA8FFF726
:10079000ABFEDDE90C704D4600268346207800074D
:1007A0000AD4AB4500DA5D4601A8012D04DD4119EC
:1007B00011F8011C302907D04F4502DA17F1040F58
:1007C00004DA012082460FE06D1EEEE7002F02DC06
:1007D000ED1B3E4403E0781CA84200DD7D1CB81BE5
:1007E00000F1010A4FF000472078000703D4AA4522
:1007F00001DB4FF0FF3A0021B7F1004F0DF1430844
:100800008DF8431024D002202B23002F01DA7F42E1
:100810002D230A21021EA0F1010000DC5FB197FB2D
:10082000F1FC97FBF1F201FB1C7C17460CF1300C3C
:1008300008F801CDEEE7A8F1010003702188090551
:1008400001D5452100E06521A0F1010800F8011C57
:1008500009980FA9A1EB0807FF1D00B1012041195C
:1008600001EBEA70A1693844081A401EA0612078A3
:10087000C00602D42046AFF30080099828B1D4E91D
:1008800001219047206A401C20622078C00622D5B2
:100890002046AFF300801EE0002E04DBB34502DDEE
:1008A00001A8805D00E03020D4E901219047206A52
:1008B000401C2062761CAAF101005FEA000A0AD1FE
:1008C00000F09AF8C0680168405CD4E901219047C3
:1008D000206A401C2062281EA5F10105DCDC07E02F
:1008E000D4E9012118F8010B9047206A401C2062CE
:1008F000381EA7F10107F3DC2046AFF30080032088
:1009000011B041E601694A1C02610878704700B5E0
:100910008FB0CDE901310021059105497944CDE938
:10092000031011466846FFF7C1FC0FB000BD000080
:10093000E5FFFFFF0A6802F8010B0A607047D1E982
:1009400000239A4202D2531C0B601070704710B5FE
:10095000203AC0F00B80B1E81850203AA0E81850B7
:10096000B1E81850A0E81850BFF4F5AF5FEA027C78
:1009700024BFB1E81850A0E8185044BF18C918C0E7
:10098000BDE810405FEA827C24BF51F8043B40F888
:10099000043B08BF7047D20728BF31F8023B48BF6D
:1009A00011F8012B28BF20F8023B48BF00F8012BAB
:1009B00070474FF000020429C0F0128010F0030CC1
:1009C0003FF469ADCCF1040CBCF1020F18BF00F884
:1009D000012BA8BF20F8022BA1EB0C01FFF75BBD98
:1009E0005FEAC17C24BF00F8012B00F8012B48BF4F
:1009F00000F8012B7047000000487047FC1A0020E7
:100A000030B5B0F10A024FEA900E71F100034EEAE0
:100A1000817EB0EB0E0061EB91014FEA101E4EEAB1
:100A2000017E10EB0E0041EB11114FEA102E4EEA41
:100A3000016E10EB0E0041EB11214FEA104E4EEA11
:100A4000014E10EB0E0041EB1141401841F1000145
:100A50004FEAD00040EA41704FEAD10110EB800527
:100A60004FEA810444EA907444EB01046D1944EBAD
:100A70000404521BA3414FF0000348BF0A3200D5C3
:100A800030BD401C41F1000130BD00002DE9F041B6
:100A90001F46044603260168072A01F4006004DBB0
:100AA00008B116A505E016A503E008B115A500E0FC
:100AB00015A521F010002060A069C01EA0610FB133
:100AC000401EA0612046AFF300804FB1D4E9012160
:100AD00038469047206A401C2062C01C206206E015
:100AE000206AFAE7D4E9012115F8010B9047761E38
:100AF000F8D22046AFF30080BDE8F0814E414E00B1
:100B00006E616E00494E4600696E66002DE9F04741
:100B1000814616468AB0354878440DC88DE80D00E8
:100B200032487844801C03AC0DC884E80D0041F6BF
:100B30009B300844372190FBF1F290FBF1F5A5F1D1
:100B4000800501FB12041B3C02D56442012000E039
:100B50000020DFF898A080460027FA44AAF1BE0AD8
:100B60000EE0E0070AD03246684607EB4701012352
:100B70000AEB810100F046FB8DE8070064107F1C42
:100B8000002CEED1194F7F44AE3F19E0E80715D095
:100B900007EB04100DF1180A90E80E008AE80E0029
:100BA000C068F04201D1981908903246012306A985
:100BB00003A800F027FB03AB83E807006D10641C5B
:100BC000002DE3D14FF0010332466946B8F1000F22
:100BD00003A802D000F001FB01E000F013FBC9E91B
:100BE0000001C9F808200AB0BDE8F087444B0000B6
:100BF00000487047DC1A00207546FFF7F9FFAE4643
:100C000005006946534620F00700854618B020B518
:100C1000FFF720FBBDE820404FF000064FF0000733
:100C20004FF000084FF0000B21F00701AC46ACE894
:100C3000C009ACE8C009ACE8C009ACE8C0098D4601
:100C4000704710B50446AFF300802046BDE8104061
:100C5000FFF7A0BA4FF0013C50F8042B51F8043BC9
:100C60009A4221D1A2EB0C03934313EACC1317D180
:100C700050F8042B51F8043B9A4215D1A2EB0C0317
:100C8000934313EACC130BD150F8042B51F8043BD7
:100C90009A4209D1A2EB0C03934313EACC13DBD0A5
:100CA0004FF00000704700BFD01A01BAB1FA81F1CD
:100CB00001F0180122FA01F0CB40C1F12001DBB2B2
:100CC000C0B2C01A2CFA01F3D11A914311EAC31130
:100CD000E6D1704701491820ABBEFEE726000200AE
:100CE00070475FEA400C08BF91F0000F4FEA8C2379
:100CF0004FEAC12243EA51514FEA1C5018BF00F598
:100D0000F0404FEA300018BF41F000415FEA6C5CF0
:100D100000F02980BCF1FF3F08BF40F080407047E1
:100D2000130C06BF12044FF0100C4FF0000C130E02
:100D300004BF12020CF1080C130F04BF12010CF1D6
:100D4000040C930F04BF92000CF1020CD30F04BFEC
:100D500052000CF1010C11464FF00002A0F11F00EF
:100D6000A0EB0C00704711F0004F08BF704731F046
:100D700000413FF4D5AF0B0C06BF09044FF0100C37
:100D80004FF0000C0B0E04BF09020CF1080C0B0F06
:100D900004BF09010CF1040C8B0F04BF89000CF196
:100DA000020CCB0F04BF49000CF1010CCCF1200365
:100DB000A0EB0C0022FA03F302FA0CF241EA030161
:100DC00000F10100704720F07F4C80EA030023F01F
:100DD0007F47ACEB070303F57C5300F0004003F1C1
:100DE000FF032DE980494FEA154B09B44FEA14433C
:100DF00025EA0B4E24EA03480FF2042606EB1327DC
:100E000049083E785FEA320203FB0667C7F5000730
:100E100007FB06F64FEA54374FEAD64606F10206BC
:100E200007FB066CCCF1005C4FEA1C472CEA074C30
:100E300007FB06F40CFB06F504EB15464FEA961685
:100E400034BF00204FF000404FEAD13706FB07FCCB
:100E50004FEA1C4C0CFB0BF7D21B03FB0CF761EBAE
:100E600007010CFB0EF7B0EB074072EB17420CFBCF
:100E700008F734BFA2EB0742B2EB074261EB174120
:100E80004FEA0C444FEA910706FB07FC4FEA1C4C63
:100E90000CFB0BF7B0EBC74072EB573203FB0CF7C0
:100EA00034BFA2EBC742B2EBC74261EB57310CFB38
:100EB0000EF7B0EBC70072EB57720CFB08F734BFAC
:100EC000A2EBC702B2EBC70261EB5771039F4FEA77
:100ED000816141EA921104EBCC044FEAD1374FEA29
:100EE000826206FB07FC42EA90124FEA80604FEAFA
:100EF0001C4C0CFB0BF7D21B03FB0CF761EB07013F
:100F00000CFB0EF7B0EB074072EB17420CFB08F737
:100F100034BFA2EB0742B2EB074261EB17414FEA45
:100F20008C554FEA910704EB9C2406FB07FC4FEA23
:100F30001C4C0CFB0BF7B0EBC74072EB573203FBBA
:100F40000CF734BFA2EBC742B2EBC74261EB57319B
:100F50000CFB0EF7B0EBC70072EB57720CFB08F7F7
:100F600034BFA2EBC702B2EBC70261EB577115EBBE
:100F70004C254FEA816141EA92114FEA82624FEAC1
:100F8000D13742EA901206FB07FC44F100044FEA15
:100F900080604FEA1C4C0CFB0BF7D21B03FB0CF7D9
:100FA00061EB07010CFB0EF7B0EB074072EB174249
:100FB0000CFB08F734BFA2EB0742B2EB074261EB30
:100FC000174115EB1C154FEA813141EA92414FEA76
:100FD000823242EA90424FEA80304FEA0C7644F186
:100FE000000448EA03434EEA0B484FF0000EB2EB10
:100FF000080C71EB030724BF624639464EEB0E0E18
:101000004FF0000B0018524149414BEB0B0BB2EB78
:10101000080C71EB03077BF1000B24BF62463946D5
:101020004EEB0E0E4FF0000B0018524149414BEBB6
:101030000B0BB2EB080C71EB03077BF1000B24BF29
:10104000624639464EEB0E0E51EA020718BF46F0D3
:10105000010616EB0E7655F1000254F1000103D59E
:10106000BDE88901BDE80088BDE88901BDE8004808
:10107000B619524141EB0101A3F101037047808091
:101080007F7E7D7C7B7A79787776767574737271E2
:1010900071706F6E6E6D6C6C6B6A6A69686867669A
:1010A00066656464636362616160605F5F5E5E5D2C
:1010B0005D5C5C5B5B5A5A595958585757565655A0
:1010C00055555454535352525251515050504F4F02
:1010D0004F4E4E4D4D4D4C4C4C4B4B4B4A4A4A4952
:1010E0004949484848474747474646464545454495
:1010F0004444444343434342424242414141002B22
:101100009C4630D477002BD01CB54FEA370703B488
:101110004FF010004FF01001BAF1000F06D0BCF1F3
:10112000000FDCBF40F0080040F008014FF0000065
:101130000FBCBDE810400BF1010BBBF1010F08BF64
:101140005FEA170722BF12F1010211F101014FF00E
:10115000004143F1000300F0004043EA0000704703
:10116000F9D35708D0E746EA064613F1400F4FEA95
:1011700016461FDD13F1200FDFBF16430A4600217C
:1011800020335B42BED0C3F1200746EA064602FA8E
:1011900007F74FEA164646EA0706C3F1200722FA88
:1011A00003F201FA07F721FA03F14FF0000342EAD4
:1011B0000702A7E746EA020646EA06464FEA16464F
:1011C00046EA0106BCBF46EA0646360C4FF000036D
:1011D0004FF000024FF0000194E72DE9804C9A4651
:1011E000934670B491E8380007C831EA400C48BF14
:1011F00034EA430C03D5FFF7E6FDFFF780FFF0BCB0
:10120000BDE8008C2DE9804C9A46934670B491E875
:10121000380007C810F0804F08BF13F0804F03D18B
:1012200000F005F8FFF76BFFF0BCBDE8008C20F084
:101230007F4780EA030023F07F4C07EB0C03A3F504
:101240007C5300F00040A3F1FE0392F0000F00F089
:10125000B38095F0000F00F077802DE901494FEA47
:1012600011404FEA144621EA004800FB06FC24EA3C
:10127000064708FB06F607FB08F800FB07F718EB24
:1012800006484CEB164C4FEA124B18EB07484FEA56
:1012900015464CEB174022EA0B4E0BFB06FC25EAE9
:1012A00006470EFB06F607FB0EFE0BFB07F71EEBD1
:1012B000064E4CEB164C4FF000061EEB074E4CEB67
:1012C000174B18EB0B0840F1000018EB0E0B58EB16
:1012D000000840F100008F1A4FF000013CBFC943E5
:1012E000661B14BFB5EB040C00213CBFC943F61BC1
:1012F0004FEA17444EEA8E0E27EA04454FEA1C4790
:1013000004FB07622CEA074C05FB07F70CFB05F60C
:1013100004FB0CFC16EB074642EB174216EB0C469F
:1013200042EB1C421BEB060658EB0202414146EA27
:101330009E0601D5BDE80189B619524141EB010174
:10134000A3F10103BDE801894FEA14454FEA1147B3
:1013500024EA054621EA074C05FB07F406FB07F7DC
:101360000CFB06F105FB0CFC11EB074144EB1744A9
:101370004FEA124711EB0C4144EB1C4422EA074CA4
:1013800005FB07F206FB07F70CFB06F605FB0CFC5A
:1013900016EB074642EB174216EB0C4642EB1C4598
:1013A0006A1854F1000148BF7047B619524141EB29
:1013B0000101A3F10103704795F0000F37D04FEA08
:1013C00011424FEA144721EA024624EA074C02FB85
:1013D00007F106FB07F70CFB06F402FB0CFC14EB11
:1013E000074441EB17414FEA154714EB0C4441EB1E
:1013F0001C4125EA074C02FB07F506FB07F70CFB2F
:1014000006F602FB0CFC16EB074645EB174516EB00
:101410000C4645EB1C42121951F1000148BF7047C0
:10142000B619524141EB0101A3F1010370474FEAA4
:1014300014454FEA114724EA054621EA074C05FB0B
:1014400007F106FB07F70CFB06F24FF0000605FB61
:101450000CFC12EB074241EB174112EB0C4251EB33
:101460001C4148BF7047921841EB0101A3F10103F1
:10147000704700003EB5282002F03BF94FF0FF34E2
:10148000012301AA71210948009400F0CDFB9DF8C9
:101490000400000709D406A003230068029002AAF2
:1014A00071210094014800F0E7FC3EBD9C00002043
:1014B000BE0800007FB5054626A00C4600680390D4
:1014C0000020461E01900290032303AA712100967A
:1014D000214800F0D1FC4B2002F00BF9062301AAB1
:1014E00071211D48009600F09FFB642002F001F975
:1014F0009DF8040000062CD49DF807009DF8061006
:10150000000900EB01109DF8051000EB013003F01D
:101510005BFE124903F06CFE6FF01306314603F0D8
:10152000DCFF20609DF807009DF808100007000B05
:1015300000EB01209DF80910084403F045FE08491E
:1015400003F056FE314603F0C8FF064903F01CFFC6
:1015500028607FBDAC3300009C0000200000C84222
:101560000000484300004842FEE70000014800F048
:1015700091B8000038010020014800F08BB800004D
:101580007C01002030B590F840500124AC40C56B80
:101590006C60046863604368102B036803D0996033
:1015A0000068C26030BD9A600068C16030BD70479D
:1015B00072B6FEE710B590F821100022022905D07E
:1015C0000421816380F82020012010BD01680B6890
:1015D00023F00E030B6001680B6823F001030B601E
:1015E00090F84030C46B012101FA03F3636080F886
:1015F000211080F82020104610BD000010B590F892
:1016000021100024022903D00421816301243DE03C
:1016100001680A6822F00E020A6001680A6822F076
:1016200001020A601A4A0168914201D1012121E0B8
:10163000174A1432914201D110211BE0144A28327A
:10164000914201D1891515E0114A3C32914201D1F4
:1016500089140FE00E4A5032914202D14FF480318A
:1016600008E00B4A6432914202D14FF4801101E04C
:101670004FF08071064A083A5160012180F821102C
:10168000002180F82010416B01B18847204610BD31
:10169000080002402DE9F05FC16B0C6801680B681F
:1016A000D0F840C0042202FA0CF2494DDFF824A120
:1016B000494E4A4FDFF828B1DFF828E122422CD00A
:1016C0005A072AD50A68920603D40A6822F004024F
:1016D0000A600168A94201D1042219E0514501D1F3
:1016E000402215E0B14202D14FF4806210E0B942CD
:1016F00002D14FF480420BE0594502D14FF48022D1
:1017000006E0714502D14FF4800201E04FF08062A3
:101710002F4908394A60C16A3BE04FF0020808FAD5
:101720000CF818EA040F4FF000094FF0010235D011
:101730005FEA837832D50B689B0605D40B6823F0EB
:101740000A030B6080F821200168A94201D102221E
:1017500019E0514501D1202215E0B14202D14FF4E8
:10176000007210E0B94202D14FF400520BE059452B
:1017700002D14FF4003206E0714502D14FF400125D
:1017800001E04FF00072124908394A6080F8209059
:10179000816A00291AD0BDE8F05F0847082505FADC
:1017A0000CF5254212D01B0710D50B6823F00E0351
:1017B0000B6090F84010C36B02FA01F1596082632C
:1017C00080F8212080F82090016BE2E7BDE8F09FCF
:1017D000080002401C000240300002404400024069
:1017E000580002406C00024030B528B308C81349C5
:1017F00014221944B1FBF2F18900C16310498163DD
:10180000022141771A6843F6F0718A43D0E9001447
:101810002143D0E902452C43214304692143446913
:10182000214384692143114319600021416301224E
:1018300042770177084630BD012030BDF8FFFDBF7B
:101840000000024070B5044690F8200000250128F1
:101850000CD0012084F8200094F821600020012E93
:1018600006D084F820000225284670BD022070BDF5
:10187000022684F82160A0632068066826F001062D
:1018800006602046FFF77EFEE06A002820680168B7
:1018900002D041F00E0106E021F004010160206851
:1018A000016841F00A0101602068016841F001010E
:1018B0000160D9E72DE9F84FDFF8B8910024A9F1CC
:1018C000040B23460F2709F1040AABF1040EC9E00B
:1018D0000125A5402A40AA427DD1674ED1F804C017
:1018E000ACEB0608B44532D014DCBCF1030F3AD09F
:1018F00009DCBCF1000F2AD0BCF1010F1CD0BCF1F7
:10190000020F31D11DE0BCF1110F17D0BCF1120F45
:101910002AD119E0B8F5881F19D006DCB8F5803F48
:1019200015D0B8F5801F1FD111E0B8F5001F0ED0FB
:10193000B8F5041F18D10AE0CB6815E0CB681B1D71
:1019400012E0CB6808330FE0CB680C330CE08B68F7
:101950002BB1012B4FF0080303D0456104E00423B1
:1019600002E0056100E00023FF2A01D8064601E0FD
:1019700000F104064FEA840501D9A5F12005D6F847
:10198000008007FA05FC28EA0C0803FA05F548EA86
:101990000508C6F800804D68ED0062D5374DAE6988
:1019A00046F00106AE61AD6924F0030605F00105BD
:1019B0000095334D06EB050CDCF80850A607360FF2
:1019C00007FA06F825EA0805DFF8B880404503D194
:1019D0004FF0000817E044E0DFF8AC80404502D14A
:1019E0004FF001080FE0DFF8A480404502D14FF02E
:1019F000020808E0DFF89880404502D14FF0030864
:101A000001E04FF0040808FA06F848EA0508CCF8A7
:101A100008804D68D9F80060ED024D4601D51643A7
:101A200000E096432E604D68DAF80060AD0255463E
:101A300001D5164300E096432E604D68DBF8006048
:101A4000AD035D4601D5164300E096432E604D6818
:101A5000DEF80060ED03754601D5164300E09643BD
:101A60002E60641C0D682A46E5407FF431AFBDE866
:101A7000F88F00000804014000001110001002401F
:101A80000000014000080140000C0140001001402E
:101A90000014014001488068704700000C000020DD
:101AA00070B5040025D094F83D00002520B984F8D5
:101AB0003C50204600F076FA242084F83D0020684F
:101AC000016821F0010101602068016841F40041D2
:101AD00001602068016821F40041016000F010FC01
:101AE0004D4A6168914201D84C4900E04C49884216
:101AF00001D2012070BD4B492368B0FBF1F15E6853
:101B000026F03F060E435E606368934206D94FF4A9
:101B1000967359434FF47A73B1FBF3F12368491C70
:101B20001E6A26F03F06314319626168914210D85F
:101B30004900401EB0FBF1F2521CC2F30B02042A12
:101B400001D2042022E0B0FBF1F0401CC0F30B00F6
:101B50001CE0A268F2B301EBC10303EB0116431EC4
:101B6000B3FBF6F35B1C43F480431B0549D092B3EF
:101B700001EBC10202EB0111401EB0FBF1F0401C71
:101B8000C0F30B0040F4804040F400402168CA6973
:101B90004CF6FF739A431043C861D4E90710014320
:101BA0002068026822F0C00211430160D4E90301F9
:101BB00001432068826848F2FF339A4311438160F1
:101BC000D4E9050108432168CA6822F0FF021043E6
:101BD000C86001E00EE016E02068016841F00101F4
:101BE00001602564202084F83D00256384F83E5080
:101BF000002070BD01EB4106431EB3FBF6F35B1CF6
:101C0000B3E70120C2E701EB4101401EB0FBF1F058
:101C1000401CC0F30B00B7E7A086010080841E00C3
:101C200000093D0040420F002DE9F84F0025DDF886
:101C30002890984617468A4604460095FFF72AFFE3
:101C4000064694F83D0020287AD1192301228649BE
:101C50002046009601F050F90028F5D194F83C0098
:101C600001286DD0012084F83C0020680168C90774
:101C700003D1016841F0010101602068016821F48D
:101C800000610160222084F83D00102084F83E00AD
:101C900025646762A4F82A80608D20857348E0621D
:101CA00033464A465146204601F036F800287CD19A
:101CB000208DDFF8BC81202768B1012814D00228CC
:101CC000206801681ED041F480610160206841698C
:101CD00080690090BBE020684169816900910168DA
:101CE00041F400710160B2E02068016821F4806174
:101CF000016072B62068416981690091016841F410
:101D000000710AE041F40061016072B62068416927
:101D100081690091016821F48061016062B696E0FA
:101D2000032865D801280CD002284B464FF000024A
:101D30004146204600960BD001F0DEF8A8BB0CE02F
:101D400090E032464946204601F07CF968BB71E0DC
:101D500001F0D2F848BB72B633E02068016821F484
:101D60008061016072B620680069616A0870606A0B
:101D7000401C6062208D401E2085608D401E608565
:101D80003C4846F2A8110068B0FBF1F0C0EBC0007F
:101D900000EB80000090401E009007D02068406952
:101DA000C04340070DD50098F5E727E044F8305FC1
:101DB0006773A573206940F02000206162B6257327
:101DC0001CE02068016841F400710160206800692E
:101DD000616A0870606A401C6062218D491E21851D
:101DE000618D491E618562B621680969017025E02F
:101DF00032464946204601F025F910B10120BDE8E0
:101E0000F88F20680069616A0870606A401C60622F
:101E1000208D401E81B22185608D401E6085206826
:101E20004269D243520712D4032903D1016821F435
:101E30008061016020680069616A0870606A401C06
:101E40006062208D401E2085608D401E6085208D43
:101E500000287FF465AF84F83D7084F83E5084F824
:101E60003C50CCE70220CAE7020010000000FFFF50
:101E700004000100180000202DE9F84F1F4690468D
:101E80008A460446DDF82890FFF704FE054694F8DC
:101E90003D0020287FD1192301224049204600958A
:101EA00001F02AF8002876D194F83C00012872D07D
:101EB000012084F83C0020680168C90703D101684B
:101EC00041F0010101602068016821F400610160B6
:101ED000212084F83D00102084F83E00002626646E
:101EE000C4F824806785608D20852D48E0622B46EC
:101EF0004A465146204600F085FF90B92068416966
:101F00008069009036E02A464946204601F0D2F822
:101F100050B1206C042804D12068016841F400719C
:101F200001600120BDE8F88F606A216800780861CF
:101F3000606A401C6062618D491E6185218D491E69
:101F400089B2218522685369DB435B070BD451B109
:101F500000781061606A401C6062608D401E608580
:101F6000208D401E20852A464946204600F098FFD5
:101F70000028CED1208D0028C5D154F83D0B016832
:101F800041F400710160202004F81E09E6776677AD
:101F90000020C7E7FFE70220C4E7000002001000AE
:101FA0000000FFFF10B586B0002100910191029161
:101FB000039100680F4988421AD10F4CA06940F084
:101FC0000800A061A069694600F008000490C020E4
:101FD000009012200190032003900848FFF76AFC4C
:101FE000E06940F40010E061E06900F40010049042
:101FF00006B010BD0054004000100240000C01402B
:102000000248816802781144816070470C0000200A
:10201000074810B5016841F010010160032000F08D
:10202000A7F80F2000F006F800F050F8002010BDCF
:102030000020024030B505461F4887B0C16941F015
:102040000401C161C06906A900F00400009001A864
:1020500000F036F90498B0B100F052F94000174989
:10206000174AB0FBF1F11748491E0260416040F287
:10207000E7320021C0E903218160816100F018FB93
:10208000040003D015E000F03BF9E8E70D4800F04C
:102090003DFB04000DD11E2000F03CF8102D07D2AE
:1020A000002229461E2000F043F80748056000E0A2
:1020B000012407B0204630BD0010024040420F000E
:1020C00000080040C0010020100000200F4808B5A3
:1020D000816941F001018161816901F00101009193
:1020E000C16941F08051C161C069002200F0805097
:1020F00000900F21901E00F01BF80548416821F068
:10210000E06141F00071416008BD00000010024034
:1021100000000140002809DB00F01F02012191406E
:102120004009800000F1E020C0F800117047000075
:10213000F0B40E4B1B680C46C3F30223C3F1070532
:10214000042D00D90425191D072901D2002300E020
:10215000DB1E012606FA05F1491E214099409E40EA
:10216000761E16403143F0BC01F099BA0CED00E048
:10217000064900F0070208684FF6FF03184040EADE
:102180000220034A10430860704700000CED00E095
:102190000000FA052DE9F0470F46050061D0434ED7
:1021A000306800F00700B84209D2306820F007001C
:1021B00038433060306800F00700B84251D12868D9
:1021C0003B4C810712D5400703D5606840F4E060BE
:1021D00060602878000703D5606840F46050606054
:1021E0006068A96820F0F000084360602878C007A4
:1021F00028D06868012810D02168022810D08907EB
:1022000000292EDA616821F0030101436160FFF7C4
:1022100041FC804641F288390DE021688903EFE7EF
:102220008901EDE7FFF736FCA0EB0801494502D92B
:102230000320BDE8F0876068696800F00C00B0EB2F
:10224000810FEFD1306800F00700B8420BD9306839
:1022500020F0070038433060306800F00700B842D3
:1022600001D00120E5E72878400705D56068E968D6
:1022700020F4E060084360602878000706D56068B5
:10228000296920F4605040EAC100606000F058F80D
:102290006168084AC1F30311515CC84006490860EF
:1022A00006480068FFF7C6FE0020C2E70020024093
:1022B00000100240CA55000818000020100000203D
:1022C0000F2202600C4A536803F003034360536813
:1022D00003F0F0038360536803F4E063C360526863
:1022E0004FF4E06303EAD20202610448006800F0A0
:1022F0000700086070470000001002400020024004
:102300000448054900684968044AC1F30221515C48
:10231000C84070471800002000100240DA5500083D
:102320000448054900684968044AC1F3C221515C68
:10233000C84070471800002000100240DA5500081D
:102340000E4A51680E4801F00C03042B11D0082BE3
:102350000FD10C48C1F38343C903C05C0AD551684F
:10236000084AC1F34041921E515C054A5043B0FBFC
:10237000F1F07047044948437047000000100240E4
:1023800000127A00BA55000800093D002DE9F84F07
:10239000040070D02078C04DC00749D06868C0F3F1
:1023A0008100012807D06868C0F38100022809D1A4
:1023B0006868C00306D52868800339D5606800289E
:1023C000E7D035E06068B0F5803F0BD010B1B0F5D4
:1023D000A02F11D0286820F480302860286820F4CD
:1023E000802002E0286840F480302860606890B166
:1023F000FFF750FB06460AE0286840F4802028607A
:10240000F0E700BFFFF746FB801B642873D82868FD
:102410008003F7D50CE0FFF73DFB064605E000BF63
:10242000FFF738FB801B6428F0D828688003F7D4B6
:1024300020789A4E80074FF001094FF0000839D5F7
:10244000686810F00C0F07D06868C0F3810002289C
:1024500009D16868C00306D42868800714D52069AC
:10246000012808D110E02069B0B1C6F80090FFF74C
:1024700011FB074605E00AE1FFF70CFBC01B022831
:10248000C4D828688007F7D52868616920F0F8006B
:1024900040EAC10028600DE0C6F80080FFF7FAFAB4
:1024A000074604E0FFF7F6FAC01B022823D8286885
:1024B0008007F7D4207800072CD57948A169D9B1D5
:1024C000C0F80090FFF7E6FA074604E0FFF7E2FAEB
:1024D000C01B02280FD8686A8007F7D571484FF4EF
:1024E000FA510068B0FBF1F0009000BF0098411E67
:1024F0000091FAD20EE080E0C0F80080FFF7CAFA3F
:10250000074604E0FFF7C6FAC01B022875D8686AC0
:102510008007F7D42078400760D5E8690027C0001D
:1025200008D4E86940F08050E861E869012700F0CC
:10253000805000905C480168C90513D40168834647
:1025400041F480710160FFF7A5FA824606E000BF02
:10255000FFF7A0FAA0EB0A0064284ED8DBF80000D1
:10256000C005F5D5E06801280AD008B1052813D0C8
:10257000286A20F001002862286A20F0040002E0A6
:10258000286A40F001002862E06841F2883B98B177
:10259000FFF780FA82460BE0286A40F004002862C8
:1025A000EEE700BFFFF776FAA0EB0A0159455AD8CB
:1025B000286A8007F6D50CE0FFF76CFA824605E042
:1025C000FFF768FAA0EB0A0159454CD8286A800742
:1025D000F6D41FB1E86920F08050E861E06988B363
:1025E0006968C1F38101022944D00228C6F86080DD
:1025F00004D0FFF74FFA044638E034E0FFF74AFA18
:10260000074604E0FFF746FAC01B02282BD82868CB
:102610008001F7D4206AB0F5803F05D16868A168D1
:1026200020F4003008436860D4E908010843696871
:1026300021F4741108436860C6F86090FFF72AFA25
:10264000044606E025E000BFFFF724FA001B02283D
:1026500009D828688001F7D51BE000BFFFF71AFAF8
:10266000001B022802D90320BDE8F88F28688001EA
:10267000F4D40EE00128F7D06868226A00F48031B3
:10268000914204D1616A00F47010884201D00120A7
:10269000EAE70020E8E700000010024000004242A4
:1026A00080044242180000200070004070477047CC
:1026B00010B5040003D094F83D0010B107E00120EC
:1026C00010BD002084F83C00204600F01EF80220D7
:1026D00084F83D00211D206800F044FE012084F8AC
:1026E000460084F83E0084F83F0084F8400084F8F7
:1026F000410084F8420084F8430084F8440084F8E0
:10270000450084F83D00002010BD704790F83D1052
:10271000012901D001207047022180F83D10016895
:10272000CA6842F00102CA6000680B49884208D0BA
:10273000B0F1804F05D00949884202D0084988424B
:1027400004D1816801F00701062903D0016841F036
:102750000101016000207047002C0140000400408E
:102760000008004070472DE9F04104460068C66843
:1027700005694FF00007A90713D5B10711D5F91E58
:10278000016101202077206880698007204602D0FF
:10279000FFF7E8FF04E000F07EF8204600F07CF848
:1027A0002777680716D5700714D521686FF00400E5
:1027B0000861022020772068806910F4407F20465D
:1027C00002D0FFF7CFFF04E000F065F8204600F0EC
:1027D00063F82777280715D5300713D521686FF0E0
:1027E00008000861042020772068C069800720461F
:1027F00002D0FFF7B7FF04E000F04DF8204600F0EC
:102800004BF82777E80616D5F00614D521686FF047
:1028100010000861082020772068C06910F4407F0C
:10282000204602D0FFF79EFF04E000F034F8204677
:1028300000F032F82777E80708D0F00706D02168C3
:102840006FF001000861204600F028F8280608D53E
:10285000300606D521686FF0800008612046FFF73A
:1028600025FF680608D5700606D521686FF0400080
:102870000861204600F01CF8A8060AD5B00608D565
:1028800021686FF0200008612046BDE8F041FFF7A5
:102890000EBFBDE8F0817047704700000068034933
:1028A000884201D1FFF7ACBB704700000008004030
:1028B00070477047704710F8411F407808437047D1
:1028C000F8B5016804460868CA684B6910F00F0F34
:1028D0004FF0000559D003F0010602F4907737431A
:1028E00065D0C10705D0D10503D5616C41F0010168
:1028F0006164410705D5D90703D0616C41F002013D
:102900006164810705D5D90703D0616C41F00401EA
:102910006164010707D502F02001314303D0616CE7
:1029200041F008016164616C00293AD0800604D549
:10293000900602D5204600F0D9FD20684069616C00
:10294000C0F38010090700D460B3204600F099FD61
:1029500020684069400621D52068143050E8001FE7
:1029600021F0400140E80012002AF5D1E06BA8B147
:102970006D494163E06BFEF741FE002811D0E06B2A
:10298000416B01B0BDE8F040084783060FD59306C0
:102990000DD52046BDE8F84000F0A8BD2046FFF761
:1029A00089FFF8BD2046FFF785FF6564F8BD266BFB
:1029B0002023012E7CD1C6067AD5D60678D50868A4
:1029C0004868009048694FF00206400640D5E16B28
:1029D000086840680004000CE8D0A28D8242E5D966
:1029E000E085886920282DD020680C3050E8001F31
:1029F00021F4807140E80012002AF5D120681430DB
:102A000050E8001F21F0010140E80012002AF5D132
:102A10002068143050E8001F21F0400140E8001207
:102A2000002AF5D184F84230256320680C3050E844
:102A3000001F21F0100140E80012002AF5D1E06BE0
:102A4000FEF7B8FD6663A08DE18D401A81B22AE0E1
:102A5000A08DE18D401A81B2E08D0028A6D000291A
:102A6000A4D022680C3252E8000F20F4907042E8A3
:102A70000007002FF5D12068143050E8002F22F015
:102A8000010240E80027002FF5D184F84230256389
:102A900020680C3050E8002F22F0100240E800239C
:102AA000002BF5D166632046FFF703FFF8BDFFE773
:102AB00005062BD5150629D594F841002128F5D116
:102AC000A068B0F5805F01D12069B0B1206A411CD7
:102AD0002162216800784860E08C401E0004000CF0
:102AE000E084E3D12068C16821F08001C1602068E2
:102AF000C16841F04001C160D8E7206A0088C0F396
:102B000008004860206A801C2062E5E74006CDD5B9
:102B10005006CBD5CA68204622F04002CA6084F82D
:102B2000413000F0DFF8C1E7DD33000870B5040084
:102B300004D094F84100002510B106E0012070BDDA
:102B400084F84050204600F023F8242084F8410007
:102B50002068C16821F40051C160204600F028FDC2
:102B60002068016921F4904101612068416921F0E8
:102B70002A0141612068C16841F40051C160656467
:102B8000202084F8410084F842006563002070BD75
:102B9000F0B585B000240646009401940294039495
:102BA00000682C49884253D12B48C16941F48021E7
:102BB000C161C16901F480210491816941F008017A
:102BC00081618069254D00F0080004904FF4806019
:102BD0000090022001900320039069462846FEF7EA
:102BE00069FEE814CDE90004694628460294FEF720
:102BF00061FE1C4D1A48802701C5102091C5194857
:102C000045F810496C61AC61EC61FEF7EDFD08B16F
:102C1000FEF7CEFCB5636E62124D11484435143098
:102C2000C5E90004C5E902472C616C61AC61284626
:102C3000EC61FEF7D9FD08B1FEF7BAFCF56300229E
:102C4000052127206E62FFF773FA2720FFF762FA4B
:102C500005B0F0BD0048004000100240000C0140EB
:102C60001C000240380100207047000070B5044687
:102C700090F84100202801D0022070BD49B342B332
:102C80002162A284E28400206064212384F8413020
:102C9000A56B114BAB62A56B104BEB62A56B104B98
:102CA0002B63A36B5863256813462A1DA06BFEF7A0
:102CB000C9FD21686FF0400008602068143050E8BA
:102CC000001F41F0800140E80012002AF5D10020E9
:102CD00070BD012070BD0000373400087934000851
:102CE000ED33000870477047FEE701684A69D24338
:102CF00052050FD46FF480624A61002140F8301F02
:102D0000202242738173026942F00402026101735E
:102D100001207047002070472DE9F84F0446C06A33
:102D20001E4693460D4621680A6842F480620A6096
:102D3000082807D0012805D010F5803F02D0206B6D
:102D4000112804D12068016841F4807101604FF0BE
:102D500001195B46002249462046009600F0CCF857
:102D60004FF4007840B120680068C00501D5C4F870
:102D700040800320BDE8F88F2069DFF884A0B0F51B
:102D8000804F0FD00620216800EAD51747F0F000E9
:102D9000086133465A460AF10601204600F0F4F86D
:102DA00058BB03E0E8B240F001001CE02168E8B243
:102DB000086133465A465146204600F0E5F8E0B92E
:102DC0002068416981690091016841F48071016066
:102DD0005B46002249462046009600F08DF8002808
:102DE000C1D147F0F1002168086133465A46514687
:102DF000204600F0C9F80028BCD00120BAE7000046
:102E000002000100F8B50446C06A1E460D4617468A
:102E1000082807D0012805D010F5803F02D0206B8C
:102E2000122804D12068016841F4807101601346C2
:102E300000224FF001112046009600F05DF840B1ED
:102E400020680068C00502D54FF40070206403209C
:102E5000F8BD2069B0F5804F0ED00620216800EA49
:102E6000D51040F0F000086133463A460B49204641
:102E700000F08AF878B902E005F0FE0000E0E8B260
:102E800021680861054933463A46891F204600F00B
:102E90007BF80028DCD00120F8BD0000080001000C
:102EA00070B516460D4604461EE02046FFF71DFF8E
:102EB00008B1012070BD681C16D0FEF7EBFD801B29
:102EC000A84200D885B920684069C04340070BD5A7
:102ED000002044F8300F20216173A073216941F074
:102EE000200121612073E4E720684069C043400766
:102EF000DBD4002070BD00002DE9F047984617464E
:102F00000D460446C1F30746DDF820902AE000BFD5
:102F1000B8F1FF3F26D0FEF7BDFDA0EB090141450A
:102F200002D8B8F1000F1DD12068012E16D080699B
:102F300025EA00000004000C12D00020B84211D194
:102F4000002044F8300F20216173A073216941F003
:102F50002001216120730120BDE8F0874069E7E787
:102F60000120EBE72068012E0AD0806925EA0000E5
:102F70000004000C06D00020B842C9D00020EBE7C6
:102F80004069F3E70120F7E72DE9F0479846164638
:102F90000D4604464FF000094FF0200AC1F30747E1
:102FA00023E020684069C043400515D420680168CB
:102FB00041F40071016021686FF480604861C4F8D9
:102FC000309084F83DA084F83E90216C41F00401DB
:102FD000216484F83C9021E0701C06D0FEF75AFD75
:102FE000A0EB0800B04203D816B1012F1FD021E09A
:102FF0002068012F15D0806925EA00000004000C2C
:1030000018D000BF44F8309F84F80DA084F80E90CB
:10301000216941F02001216184F80C900120BDE874
:10302000F087406925EA00000004000CEAD120681E
:10303000406901E02068806925EA00000004000C76
:10304000AFD1ECE72DE9F041002590460E4604464D
:10305000202728E04069C043C0060CD454F8301B38
:103060006FF01000486144F810596777A577206A1F
:103070002062257714E0FEF70DFDA0EB0800B042BA
:1030800000D886B920684069C04340060BD544F893
:10309000305F6773A573206940F0200020612573BD
:1030A0000120BDE8F08120684169C9434906D1D4B7
:1030B0000020F6E770B516460D4604461EE0204691
:1030C000FFF713FE08B1012070BD681C16D0FEF793
:1030D000E1FC801BA84200D885B920684069C04344
:1030E00000060BD5002044F8300F20216173A07337
:1030F000216941F0200121612073E4E720684069E3
:10310000C0430006DBD4002070BD00000D4808B5A8
:10311000416941F0010141614069002200F0010074
:10312000009005210C20FFF703F80C20FEF7F2FFBA
:10313000002205210D20FEF7FBFFBDE808400D2011
:10314000FEF7E8BF0010024010B50B4A0421102022
:1031500000F03CFB094C084A0021A060483A0848AE
:1031600000F094FB044A2060243A0021054800F056
:103170008DFB606010BD0000A0550008000000201D
:10318000313200087D320008094808B5816941F0F4
:1031900008018161816901F008010091816941F0B4
:1031A00004018161806900F00400009008BD000006
:1031B000001002400D4810B50B4901600C494160F8
:1031C00000214FF480428160C0E9031241618161B6
:1031D000C1610162FEF764FC002803D0BDE8104025
:1031E000FEF7E6B910BD0000005400409C0000202E
:1031F000A08601000C4810B50A4901604FF4165131
:103200004160002181600C22C160C0E9041281612B
:10321000C161FFF78BFC002803D0BDE81040FEF72A
:10322000C7B910BD00480040F0000020FEE7FEE7EF
:1032300008B5104C4FF0FF352B4600226946206838
:1032400000F092FA00980028F6D0FDF7B6F882B2A6
:1032500009480099FFF70AFD0748FFF72CFB2028D3
:1032600003D0012000F045FAF6E7009801F02EF8AF
:10327000E2E7000008000020F000002088B0FEF720
:10328000F9F8134F4FF47A7807A906A8FEF712F958
:10329000402000F00BFF0590041E14D0079801F0A9
:1032A000FFFE05460E46069801F0FAFE8DE8630023
:1032B00008A240212046FCF7DFFF00231A4605A99B
:1032C000386800F0AFFA404600F013FADCE700007F
:1032D0000800002054656D703D252E31662C204875
:1032E000756D3D252E31660D0A00000010B54FF0BA
:1032F000E020006901F002FD012803D0BDE8104084
:1033000001F0C2B910BD10B590B028216846FDF794
:10331000C0F814210AA8FDF7BCF802200090012093
:10332000049010200024059007946846FFF72EF8BB
:1033300008B172B6FEE70F20CDE90A040C940D9493
:1033400000210AA80E94FEF725FF002801D072B6CE
:10335000FEE710B010BD70470148FFF704BA000047
:10336000C0010020F0B50268194B1A4C1A4D4FF0FD
:103370008047984205D0B84203D0A04201D0A8426D
:1033800003D122F070064A683243984205D0B84211
:1033900003D0A04201D0A84203D122F44074CA68ED
:1033A00022434C6922F08002224302608A68C26292
:1033B0000A688262984201D1096901630121416171
:1033C0000169C90703D0016921F001010161F0BD64
:1033D000002C0140000400400008004010B5406A85
:1033E0000021C185C184FFF765FA10BD70B5446A3C
:1033F0002068406994F84110C0F3C01000252129CD
:1034000004D118B1E584204600F062F820684069D4
:1034100094F84210C0F38010222904D118B1E58538
:10342000204600F02EF8606C40F0100060642046EA
:10343000FFF740FA70BD10B50146406A0968096897
:10344000890616D40021C1840168143151E8002F87
:1034500022F0800241E80023002BF5D101680C31F5
:1034600051E8002F42F0400241E80023002BF5D143
:1034700010BDFFF737FC10BD10B5406AFFF733FCF5
:1034800010BD01680C3151E8002F22F4907241E820
:103490000023002BF5D10168143151E8002F22F0F0
:1034A000010241E80023002BF5D1016B012909D16C
:1034B00001680C3151E8002F22F0100241E800238E
:1034C000002BF5D1202180F84210002101637047C4
:1034D00001680C3151E8002F22F0C00241E80023BE
:1034E000002BF5D1202180F84110704708B590F8E5
:1034F0004210222901D0022008BD82684FF4805377
:103500009A4201D1016921B1816A9A421BD04AB124
:103510000AE00268816A5268C2F308020A80816A7E
:10352000891C08E0026972B10268526802F07F02E9
:103530000A70816A491C8162C18D491E0904090C07
:10354000C18503D01BE002685268F1E70168CA68D0
:1035500022F02002CA600168CA6822F48072CA6040
:1035600001684A6922F001024A61202180F8421074
:1035700000214163026B012A03D0FFF775FB002095
:1035800008BD016301680C3151E8002F22F01002E0
:1035900041E80023002BF5D101680A68D20602D564
:1035A0000A6849680091818DFFF783F9E7E7000019
:1035B00070B5044600680169E26821F44051114386
:1035C00001612169A0680843616908432168CA68EC
:1035D00041F20C639A430243CA6020684169A269C0
:1035E00021F44071114341611E492068884202D193
:1035F000FEF796FE01E0FEF783FE00EBC00101EB53
:103600000012606864218000B2FBF0F3B3FBF1F3B9
:103610006FF018067343B2FBF0F5B2FBF0F605EB62
:103620008305322303EB0515B5FBF1F5B6FBF1F687
:1036300005F0F00505EB0615B2FBF0F6B2FBF0F075
:10364000B0FBF1F06FF01802504306EB800003EB83
:103650000010B0FBF1F0216800F00F0028448860F2
:1036600070BD0000003801400148FFF729B9000093
:10367000F0000020FEE7490050EAC12018BF0420F6
:103680004A0D18BF40F0010040F2FF72B2EB515FEB
:1036900008BF40F00200012808BF05207047090755
:1036A000090E002804DB00F1E02080F800147047C8
:1036B00000F00F0000F1E02080F8141D7047303852
:1036C0000A2801D20120704700207047FEF7A0FCB5
:1036D000FFF719FEFFF758FDFFF718FDFFF76AFD2A
:1036E000FFF788FD00F012F8FFF72EFD00F020F83C
:1036F000FEE710B5EFF3058111B16FF0050403E0AB
:10370000002408B100F086FE204610BDEFF30580CE
:1037100010B16FF0050070470448016811B14FF017
:10372000FF30704701210160002070476C000020CD
:1037300010B5EFF3058010B16FF0050010BD08481B
:103740000168012902D04FF0FF3010BD054A002169
:1037500082F8141D0221016000F0C4FE002010BD9B
:103760006C0000200BE000E0F8B51D466FF003028E
:103770006FF002064FF00004EFF30583A3B1F0B140
:10378000E9B1E5B9002200926A4601F0D7F90128B3
:1037900017D10098B0B10C494FF080500860BFF3CA
:1037A0004F8FBFF36F8F0DE048B141B12A4601F052
:1037B00029F9012806D025B16FF0010402E0144672
:1037C00000E034462046F8BD04ED00E0F8B51446AC
:1037D0004FF00005EFF3058212BB08B301B3A4B1AB
:1037E000D4E9023263B1502A1AD32269C2B167699F
:1037F00000FB01F6B74213D3009500F07CFF07E011
:1038000072B9226962B9626952B9002200F052FFAE
:10381000050005D00CB1216800E0002100F0C4FDD6
:103820002846F8BDF8B51D466FF003026FF002069A
:103830004FF00004EFF30583ABB100B3F9B1F5B974
:103840000022134600926A4601F07CF8012818D144
:103850000098B8B10C494FF080500860BFF34F8F0B
:10386000BFF36F8F0EE050B149B100232A4600F03C
:10387000B9FF012806D025B16FF0010402E014461B
:1038800000E034462046F8BD04ED00E02DE9FF419C
:103890004FEA01034FF00005EFF30581039549BBA3
:1038A00040B38027182100244AB3166806B1344675
:1038B00096691EB13146761E382E02D21679F60769
:1038C00003D0002004B0BDE8F081566906B1B70806
:1038D000D2F808C0BCF1000F0DD0D5685C2D18D30C
:1038E00012693AB136B18DE806103A46214601F028
:1038F000DAF903900DE0D6685EB912694AB903AAF5
:10390000CDE90012BAB2214601F0A0F9012800D099
:1039100003950398D6E700002DE9F041134C0F46BC
:103920000546E6682068001D00F040FC681C07D1D1
:1039300037B12168BDE8F0410D48091D00F086BC93
:1039400020683544B5424560216805D2A06BBDE8CA
:10395000F041091D00F062BC606B091D00F05EFCC7
:10396000A06A854200D2A562BDE8F0811C0000205B
:10397000F80600202DE9F041054600F073FC2D4CBF
:10398000A068401CA06020682B4F10B1606930B364
:103990002BE02560A068012827D1002606EB8600D1
:1039A00007EB800000F02CFC761C382EF6D3234861
:1039B00000F026FC2148143000F022FC1F4828307B
:1039C00000F01EFC1D483C3000F01AFC1B48503033
:1039D00000F016FC194860631430A06305E020680D
:1039E000E96AC06A884200D82560606A401C60624B
:1039F0006864E86A2169884200D9206100EB800090
:103A000007EB8000291D00F021FC00F04BFC6069F1
:103A100000280CD02068E96AC06A884207D20849A9
:103A20004FF080500860BFF34F8FBFF36F8FBDE83A
:103A3000F08100001C00002048020020A8060020A1
:103A400004ED00E038B500F00DFC104C2068C8B95A
:103A50000F4800F0D5FB0E48143000F0D1FB0C48A5
:103A6000E060143020610A4B0020F03B009003F12D
:103A7000500210210A2000F03EFE206010B105A186
:103A800000F092FCBDE8384000F00CBC580000206B
:103A9000FC070020546D72510000000030B4026C2D
:103AA0000B46002A0BD0C1681144C1608468A14252
:103AB00001D30168C16030BC1846FCF79DBC30BC26
:103AC00070472DE9F041856B174604460026026CCD
:103AD00082B1C7B1E068FCF78FFCE168206C091A7D
:103AE000E1602268914202D2A168081AE060022FC8
:103AF00016D017E02068A8B9A06801F077F906464B
:103B00000020A0600EE06068FCF776FC216C606825
:103B100008446060A168884204D32068606001E0C6
:103B200005B16D1E6D1CA5633046BDE8F08110B572
:103B3000044690F8590058B101280CD002280FD043
:103B4000502080F31188BFF34F8FBFF36F8FFEE7D4
:103B5000206B00F0BBFB2046BDE8104000F0B6BB78
:103B600010BD000010484FF44061420706D0C01D50
:103B70000D4920F00700411AC1F540610B4A0023AE
:103B80000144C2E900030839183A21F00701116025
:103B90004B600B600B1AC0E9001393604FF00040BC
:103BA0005360506170470000DC0E00208800002048
:103BB000144E154CA6F29C474FF08058DFF84C90FD
:103BC00012E000BF00F04EFBF068C568281D00F051
:103BD000EDFAA068401EA0606068401E606000F0C2
:103BE00061FB2846FFF7A3FF60680028EAD1386828
:103BF0000128F9D9C9F80080BFF34F8FBFF36F8F49
:103C0000F2E70000E40600201C00002004ED00E0C4
:103C100070B51D46049C51B1C4F80020C4E90F01E1
:103C20000121204600F09AFD84F84C5070BD2460BC
:103C3000F4E700002DE9F05F8846DDE90B941546B6
:103C4000834691009A460A9EA522206BFCF719FC38
:103C50006FF00301206B01EB8501084420F007079A
:103C6000780707D0502080F31188BFF34F8FBFF340
:103C70006F8FFEE70025B8F1000F0FD05FF0000056
:103C8000221818F8001082F8341018F8001011B13A
:103C9000401C1028F4D384F8435001E084F83450D9
:103CA000382E00D33726E662C4E91365201D00F0E4
:103CB000B2FA04F1180000F0AEFA2461C6F138003F
:103CC0006462A061656584F858505246594638468A
:103CD00000F05AFA2060B9F1000F01D0C9F8004095
:103CE000BDE8F09F30B5114900E011460A688242F4
:103CF000FBD34B685C18844203D140681844486089
:103D0000084643681C18944209D1084C183C2468A2
:103D1000A24209D052681A4442600A6812680260DE
:103D2000814200D0086030BD0460F9E788000020BF
:103D300070B5002441600B4D0061914206D8D11A44
:103D40008269914206D2011D286907E09A4203D296
:103D5000994201D3012403E0011DE86800F05EFAF6
:103D6000204670BD5800002010B5044600F07AFAD5
:103D7000A06B28B15FF0000400F094FA204610BD5B
:103D80000124F9E730B589B03C4D6EE00498002875
:103D900006DADDE90601059A90470498002864DBFD
:103DA000069C606910B1201D00F000FA03A800F025
:103DB000D7F8024604980A2857D2DFE800F0050534
:103DC000052D334A05052D3394F8280040F00100F5
:103DD00084F828000599A069059B01442046FFF757
:103DE000A7FF68B3216A2046884794F82800400757
:103DF0003BD5002000900598A16900234218194680
:103E0000204601F0FDF8D8B9502080F31188BFF3A7
:103E10004F8FBFF36F8FFEE714F8280F20F00100DB
:103E2000207022E094F8280040F0010084F8280077
:103E30000598A06128B1811813462046FFF778FF46
:103E400013E0502080F31188BFF34F8FBFF36F8FC3
:103E5000FEE794F82800810703D4204600F036FAE4
:103E600003E020F0010084F82800002204A928685B
:103E700000F0C8FD002889D109B030BD58000020ED
:103E80002DE9FC410F46054600F070FB01A800F04B
:103E900067F80446019818B101F020F8BDE8FC81EC
:103EA000254EAFB130690068D0B30027291B3A46D0
:103EB000306800F08DFA01F011F80028EED11F49AA
:103EC0004FF080500860BFF34F8FBFF36F8FE5E76F
:103ED000A542EBD801F002F8F0682746C068C46834
:103EE000201D00F063F994F82800410719D5A06956
:103EF0002B4641193A462046FFF71AFFA8B1002089
:103F00000346014600902A46204601F079F860B940
:103F1000502080F31188BFF34F8FBFF36F8FFEE700
:103F200007E020F0010084F82800216A2046884735
:103F3000B4E70127BAE700005800002004ED00E0D4
:103F40000648416B096829B1416BC968C96849686D
:103F5000816270474FF0FF31FAE700001C0000203B
:103F600070B5054600F0D8FE064E0446B06884429F
:103F700003D200F009F8012000E00020286020466C
:103F8000B46070BD58000020F8B5194D20E0C0683D
:103F9000C4680668201D00F009F9216A2046884798
:103FA00094F82800400713D5A0693044B04206D9E0
:103FB00024616060211DE86800F030F908E000200D
:103FC0000346014600903246204601F019F838B108
:103FD000E86801680029DAD12969C5E90310F8BD4C
:103FE000502080F31188BFF34F8FBFF36F8FFEE730
:103FF0005800002008484068401C4FF0500080F3F3
:10400000118804D0BFF34F8FBFF36F8FFEE7BFF36C
:104010004F8FBFF36F8FFEE790000020074CE068E2
:10402000016841B1C0680021D0F80000FFF728FF07
:10403000FFF7A8FEF3E701210020F7E75800002072
:104040002DE9F041044600F00DF994F9455004F1D2
:10405000240609E0606A48B1304600F007FF08B165
:1040600000F006FA6D1E6DB2002DF3DC4FF0FF3646
:1040700084F8456000F016F900F0F4F894F9445023
:1040800004F1100709E0206948B1384600F0EEFE5F
:1040900008B100F0EDF96D1E6DB2002DF3DC84F86F
:1040A0004460BDE8F04100F0FDB800002DE9F041AA
:1040B0000546002700F05AFA324E306808B9FFF77B
:1040C00051FD706905424ED1C5B3083568070ED061
:1040D00005F00700C0F108000544680707D050202C
:1040E00080F31188BFF34F8FBFF36F8FFEE72DB3BF
:1040F0007068854237D82348183001460C6801E0C3
:1041000020460C466168A94202D221680029F7D1F5
:1041100031688C4227D007682168016060680837E1
:10412000411B10290FD96019420708D0502080F395
:104130001188BFF34F8FBFF36F8FFEE713E041602D
:104140006560FFF7CFFD61687068401A7060B26803
:10415000904200D2B060706901430020C4E90001C0
:10416000F068401CF06000F0B9FE780707D05020DE
:1041700080F31188BFF34F8FBFF36F8FFEE7384690
:10418000BDE8F0817000002010B5031F4FF080746F
:104190001C601B1F21F001011960191F024B0B60ED
:1041A000143940380A6010BDF53F0008D0E90132EB
:1041B00001699A60D0E901235A604A68824201D1BC
:1041C00082684A60002202610868401E0860086830
:1041D00070470000034B036003F15C00086080201F
:1041E0001060704724080020044B036003F15C005A
:1041F00008604FF48070106070470000800A002053
:1042000000F108014FF0FF32C0E90112C160016105
:1042100000210160704700210161704730B50B68D3
:104220005A1C02D000F1080202E0026904E02246B2
:10423000546825689D42FAD953684B6099608A603A
:10424000516008610168491C016030BD42684A60E4
:1042500093688B6093685960916008610168491C9C
:1042600001607047502080F31188BFF34F8FBFF378
:104270006F8F0A494868401C486001280CD10848E3
:10428000006810F0FF0F07D0502080F31188BFF3B3
:104290004F8FBFF36F8FFEE7704700009000002044
:1042A00004ED00E00849486828B1401E486001D18B
:1042B00080F311887047502080F31188BFF34F8F2F
:1042C000BFF36F8FFEE700009000002070B500285C
:1042D0002AD0164DA0F1080460686969084207D128
:1042E000502080F31188BFF34F8FBFF36F8FFEE72D
:1042F00022683AB1502080F31188BFF34F8FBFF38B
:104300006F8FFEE78843606000F030F9606869688D
:10431000084468602046FFF7E5FC2869401C2861D6
:10432000BDE8704000F0DABD70BD000070000020F4
:104330004FF0E02000210161816105494FF47A725C
:104340000968B1FBF2F1491E416107210161704723
:104350001800002010B5FBF76BFF114910280ED391
:1043600000F1E02090F8F0030A78904207D2502044
:1043700080F31188BFF34F8FBFF36F8FFEE70948BB
:104380000068896800F4E060884207D9502080F313
:104390001188BFF34F8FBFF36F8FFEE710BD000092
:1043A000900000200CED00E010B5084B002200BF8B
:1043B00053F832401CB1521C082AF9D310BD43F8FF
:1043C000321003EBC201486010BD0000080200205B
:1043D00070B515460E460446FFF744FF94F94410A5
:1043E0000020491C01D184F8440094F94510491C6F
:1043F00001D184F84500FFF755FFA06B28B92A4684
:10440000314604F1240000F051F82046BDE8704028
:10441000FFF716BE10B5020014D00F48006B38B17C
:10442000502080F31188BFF34F8FBFF36F8FFEE7EB
:1044300000F09CF800211046FFF76EFA00F04EFDE8
:10444000002807D105494FF080500860BFF34F8F17
:10445000BFF36F8F10BD00001C00002004ED00E0D2
:1044600002490A6A0260C968416070471C00002066
:1044700001490120C86170471C00002010B50C469E
:1044800050B1094909681831FFF7C8FE2046BDE858
:1044900010400121FFF740BA502080F31188BFF38C
:1044A0004F8FBFF36F8FFEE71C00002070B51446DE
:1044B0000D4668B10A4909681831FFF7C7FE0CB10B
:1044C0004FF0FF3521462846BDE87040FFF724BA7B
:1044D000502080F31188BFF34F8FBFF36F8FFEE73B
:1044E0001C00002030B587B00024039405AA04A95D
:1044F00003A80494FFF76EFEDDE903010094CDE903
:104500000110002315A11748059A00F0CCFB164DA9
:104510000028E8621FD000F043FD012809D0401CAC
:1045200019D1502080F31188BFF34F8FBFF36F8FE5
:10453000FEE7502080F31188BFF34F8FBFF36F8FDA
:104540004FF0FF30A86201206861EC6007B0BDE861
:10455000304000F045B807B030BD000049444C453C
:1045600000000000B13B00081C0000200248016B65
:10457000491C0163704700001C000020164810B55C
:10458000016B11B10121C16110BD0021C16101693F
:10459000124A01E0B9B1491E01EB810352F8233000
:1045A000002BF7D001EB810302EB830202F1080438
:1045B00053685B685360A34201D15B685360DA685B
:1045C0000260016110BD502080F31188BFF34F8F4E
:1045D000BFF36F8FFEE700001C00002048020020A0
:1045E0001CB5264908780190FF20087008788DF8DE
:1045F00000009DF800009DF8002000F0F0009042BF
:1046000007D0502080F31188BFF34F8FBFF36F8F17
:10461000FEE79DF800001A4C00F0500020700720C3
:10462000A06005E09DF8002052008DF80020401E9B
:104630009DF800201206F5D4A060032807D0502072
:1046400080F31188BFF34F8FBFF36F8FFEE74FF4F6
:104650004070A060019808700A48016841F4700138
:104660000160016841F070410160FFF761FE0020C8
:104670006060FBF7A7FD00201CBD000000E400E027
:104680009000002020ED00E010B5502080F311884C
:10469000BFF34F8FBFF36F8F00F044FB18B1044995
:1046A0004FF080500860002080F3118810BD00009A
:1046B00004ED00E0F8B517460E46050013D005FBE3
:1046C00006F05030FFF7F2FC04000AD0002084F816
:1046D000460004F150023B46314628460094FFF75D
:1046E00097FA2046F8BD502080F31188BFF34F8F12
:1046F000BFF36F8FFEE738B5049D18B153B1CAB14F
:1047000081B120E0502080F31188BFF34F8FBFF3B9
:104710006F8FFEE7502080F31188BFF34F8FBFF3F8
:104720006F8FFEE7502080F31188BFF34F8FBFF3E8
:104730006F8FFEE739B1502080F31188BFF34F8FA0
:10474000BFF36F8FFEE750241C46012384F84630E8
:104750002B460094FFF75CFA204638BD70B50D4635
:10476000040025D0FFF77EFDD4E90F20216802FB6D
:104770000011A1600021A163216861600A46D4E9AB
:104780000F01401E00FB0121E16021464FF0FF3088
:1047900001F8440F487004F110008DB1FFF730FDAF
:1047A00004F12400FFF72CFDFFF77CFD012070BD14
:1047B000502080F31188BFF34F8FBFF36F8FFEE758
:1047C00021690029F0D000F051FB0028ECD0044909
:1047D0004FF080500860BFF34F8FBFF36F8FE3E758
:1047E00004ED00E02DE9FF4782B01D468A464FF0F8
:1047F0000008040003D0BAF1000F08D011E05020E7
:1048000080F31188BFF34F8FBFF36F8FFEE7206CEB
:1048100038B1502080F31188BFF34F8FBFF36F8FF3
:10482000FEE7022D0AD1E06B012807D0502080F36B
:104830001188BFF34F8FBFF36F8FFEE700F05EFA72
:104840003F4F4FF000094FF0805648B9049838B1F7
:10485000502080F31188BFF34F8FBFF36F8FFEE7B7
:10486000FFF700FDA06BE16B884207D3022D05D056
:104870000498D0B1B8F1000F1AD01EE02A46514674
:104880002046FFF71EF9616A19B104F1240000F017
:10489000EDFA20B13E60BFF34F8FBFF36F8FFFF78C
:1048A00001FD012006B0BDE8F087FFF7FBFC22E028
:1048B0006846FFF7D5FD4FF00108FFF7F3FCFFF75F
:1048C00055FEFFF7CFFC94F94400401C01D184F859
:1048D000449094F94500401C01D184F84590FFF7BD
:1048E000E1FC04A9684600F077F930B12046FFF7F3
:1048F000A7FB00F0F3FA0020D4E7FFF7B3FCA06BAE
:10490000E16B884213D1FFF7CDFC04F1100004994C
:10491000FFF7B4FD2046FFF793FB00F0DFFA002815
:104920009ED13E60BFF34F8FBFF36F8F98E7FFF7C5
:10493000B9FC2046FFF784FB00F0D0FA90E70000B6
:1049400004ED00E02DE9F0471F469046894604003B
:1049500003D0B9F1000F08D011E0502080F3118886
:10496000BFF34F8FBFF36F8FFEE7206C38B150203D
:1049700080F31188BFF34F8FBFF36F8FFEE7022FD5
:104980000AD1E06B012807D0502080F31188BFF3D3
:104990004F8FBFF36F8FFEE7FFF7DCFC5020EFF384
:1049A000118680F31188BFF34F8FBFF36F8FA06B19
:1049B000E16B884206D3022F04D0002086F31188D1
:1049C000BDE8F08794F94550A06B3A464946204629
:1049D000FFF777F8681C04D06D1C84F8455001205F
:1049E000ECE7606A0028FAD004F1240000F03EFAF7
:1049F0000028F4D0B8F1000FF1D00121C8F8001060
:104A0000EDE700002DE9F747002683B08A46040051
:104A100003D0BAF1000F08D011E0502080F31188C4
:104A2000BFF34F8FBFF36F8FFEE7206C38B150207C
:104A300080F31188BFF34F8FBFF36F8FFEE700F055
:104A40005DF9DFF8F4804FF000094FF0805748B966
:104A5000059838B1502080F31188BFF34F8FBFF312
:104A60006F8FFEE7FFF7FEFBA56BC5B151462046F1
:104A7000FFF714F86D1EA563206950B104F1100012
:104A800000F0F4F928B1C8F80070BFF34F8FBFF3FE
:104A90006F8FFFF707FC012006B0BDE8F08705988F
:104AA00008B11EB106E0FFF7FDFB27E06846FFF7FF
:104AB000D7FC0126FFF7F6FBFFF758FDFFF7D2FB07
:104AC00094F94400401C01D184F8449094F94500C5
:104AD000401C01D184F84590FFF7E4FB05A9684626
:104AE00000F07AF8002820460AD0FFF7A9FA00F073
:104AF000F5F92046FFF738F90028B3D00020CBE7BE
:104B0000FFF732F990B104F124000599FFF7B6FCE4
:104B10002046FFF795FA00F0E1F90028A2D1C8F885
:104B20000070BFF34F8FBFF36F8F9BE72046FFF7F7
:104B300087FA00F0D3F995E704ED00E02DE9F0479E
:104B400090468946040003D0B9F1000F08D011E067
:104B5000502080F31188BFF34F8FBFF36F8FFEE7B4
:104B6000206C38B1502080F31188BFF34F8FBFF312
:104B70006F8FFEE7FFF7EEFB5020EFF3118680F317
:104B80001188BFF34F8FBFF36F8FA76BF7B194F905
:104B9000445049462046FEF781FF7F1EA763681CEC
:104BA00004D06D1C84F84450012010E020690028D6
:104BB000FAD004F1100000F059F90028F4D0B8F14F
:104BC000000FF1D00121C8F80010EDE7002086F3B6
:104BD0001188BDE8F08700002DE9F0410C46050082
:104BE00011D0C4B1FFF73EFB174BDA686E6820683E
:104BF000911B471C17D02F681B6A9F4219D0964201
:104C000017D8012410E0502080F31188BFF34F8F94
:104C1000BFF36F8FFEE7502080F31188BFF34F8FF3
:104C2000BFF36F8FFEE70024FFF73CFB2046BDE893
:104C3000F081884205D9401A20602846FFF710FC11
:104C4000F1E700202060DCE71C0000202DE9FF5F79
:104C50008346DDE90E87994616468A469000FFF79F
:104C600025FA05001CD05C20FFF720FA040014D0C0
:104C70000020256384F85900CDE90240CDE9008782
:104C80004B46324651465846FEF7D4FF2046FEF7C3
:104C900071FE012004B0BDE8F09F2846FFF716FB27
:104CA0004FF0FF30F6E7F0B585B0DDE90B640A9D03
:104CB000A6B1DCB15C2700972663022684F8596010
:104CC000002604AFCDE90246CDE90057FEF7B2FF5A
:104CD0002046FEF74FFE049805B0F0BD502080F34B
:104CE0001188BFF34F8FBFF36F8FFEE7502080F323
:104CF0001188BFF34F8FBFF36F8FFEE705484169FF
:104D000019B1006B18B100207047012070470220D4
:104D1000704700001C0000200148C0687047000078
:104D20001C0000202DE9F0412E4C0027206B28B1FB
:104D3000A069401CA0613846BDE8F081E668761C99
:104D4000E66013D1606B006838B1502080F31188A1
:104D5000BFF34F8FBFF36F8FFEE7606BA16B616393
:104D6000A063206A401C2062FFF7EAF8A06ADFF81F
:104D70007880864209D3606B0068A0B1606BC06820
:104D8000C5686868864211D2A0622068C06A00EBDC
:104D9000800158F82100012800D90127E069002886
:104DA000C9D00127C7E74FF0FF30EDE7281DFFF717
:104DB000FDF9A86A18B105F11800FFF7F7F9E86ADC
:104DC0002169884200D9206100EB800108EB810055
:104DD000291DFFF73BFAE86A2168C96A8842CAD3ED
:104DE0000127C8E71C0000204802002070B504001D
:104DF0004FF0000133D01B4D2868844207D050206B
:104E000080F31188BFF34F8FBFF36F8FFEE7206DE4
:104E100038B1401E2065E36CE26A9A421FD040B16F
:104E20001DE0502080F31188BFF34F8FBFF36F8FC9
:104E3000FEE7201DFFF7BAF9E06CE062C0F1380030
:104E4000A061E06A2969884200D92861064900EB1F
:104E5000800001EB8000211DFFF7F8F901210846D1
:104E600070BD00001C0000204802002070B5C06822
:104E7000C46854B104F118000646FFF797F9144DC1
:104E8000286B50B13146134815E0502080F311884B
:104E9000BFF34F8FBFF36F8FFEE7201DFFF786F93B
:104EA000E06A2969884200D928610B4900EB80003B
:104EB00001EB8000211DFFF7C9F9E06A2968C96A82
:104EC000884202D90120E86170BD002070BD000059
:104ED0001C000020D0060020480200202DE9F047E9
:104EE0002C4D00242746286B38B1FFF7BBF9286BFF
:104EF000401E2863286B40B146E0502080F31188A3
:104F0000BFF34F8FBFF36F8FFEE7A968224E0120DA
:104F1000D1B3A6F5916980463068E0B1F068C46805
:104F200004F11800FFF742F9201DFFF73FF9E06A8E
:104F30002969884200D9286100EB800109EB8100D2
:104F4000211DFFF783F9E06A2968C96A8842E3D323
:104F5000C5F81C80E0E70CB1FEF7F2FFAC694CB17C
:104F60004FEA0806FFF7DEFE00B1EE61641EF9D1DC
:104F70000020A861E86938B10849012738070860AE
:104F8000BFF34F8FBFF36F8FFFF78CF93846BDE843
:104F9000F08700001C000020D006002004ED00E097
:104FA00010B586B0FEF74EFD114C2068B8B1002058
:104FB0000390049005AA04A903A8FFF715F9DDE9F9
:104FC000032102208DE8070000230AA10B48059A5F
:104FD000FFF769FE606010B106B0012010BD5020DF
:104FE00080F31188BFF34F8FBFF36F8FFEE7000090
:104FF00058000020546D7220537663001D40000855
:105000002DE9FF411E46134602000A9D4FF00000A5
:1050100016D0144C2768002F0FD0CDE90013029250
:10502000062917DAFFF76AFE02284FF000030FD0B7
:10503000002269462068FFF7D5FB04B0BDE8F08187
:10504000502080F31188BFF34F8FBFF36F8FFEE7BF
:105050002A46EEE70023324669463846FFF772FCDF
:10506000EBE700005800002010B500290AD00878AE
:10507000002807D005487844FBF7ECFD002801D054
:10508000002010BD0248784410BD00004206000018
:105090003A0600000808A0F500114FEA31017047F8
:1050A00043004FEAD30C4FEA3C0C43401FBF40077C
:1050B0000CF1605113F0FE4F70471CF0006F03D1EC
:1050C00000200CF0004170470CF0004343EA5070A0
:1050D00010B540EACC0000F00CF900BF00000092CF
:1050E0004FEA0001FFF7D6BF4FF000414FF000003C
:1050F000A1F500217047000090EA010F48BF81F040
:10510000004100F14881421A3CBF801A89184FEAD9
:10511000D0524FF07F4C1CEA410FA2EBD15318BF85
:105120009CEA026F00F03B804FF0004C4CEA0020FC
:105130004CEA012121FA03FC10EB0C0C1ED202F107
:10514000FF325FEA1C2040EBC25038BF70471CF0B2
:105150007F0F4FEA400C18BFBCF17F4F38BF70473C
:10516000C3F12003994008BF20F00100BCF17F4F3C
:1051700038BF7047A0F1C04000F001B94FEA3C00D1
:10518000000A40EBC25028BF1CF0FF0F4FEA400C52
:10519000E6D018BFBCF17F4F38BF7047EAE79CEA02
:1051A000026F05D010EA5C0F08BF00F000407047A6
:1051B00010B500F09EF800BF64FBBE3E014800F051
:1051C0005AB900BF0000C07FB0FA80F310FA03F2B2
:1051D000C3F19D030AD0D90501EB1220530638BF55
:1051E000704700F1010008BF20F001007047000087
:1051F0004FF47F0C1CEAD0121EBF1CEAD11392EAB6
:105200000C0F93EA0C0F00F0478090EA010F48BFA3
:1052100042F480724FF0004C4CEA00204CEA01212D
:1052200002EB0302A0FB0113A2F50002002918BF44
:1052300043F001035B0028BF4FEA330342EB2242F5
:105240005FEA132C4CEBC2502EBFBCEB436FB2F5A0
:105250007C0F70474FEA036CBCF1004F08BF20F091
:105260000100B2F57C0F38BF70470BD582F0FF020A
:1052700012F5803FC8BF704700F1C040D8BF00F0B2
:105280000040704700F5000C5FEA4C0C48BF7047C7
:10529000B0F1C04000F073B890EA010F0CEAD113EE
:1052A00048BF42F48072624538BF634504D280EA49
:1052B000010000F00040704710B500F01AF800BF80
:1052C0008900013E00F007B800F009B85FEA410C20
:1052D0005FEA1C6C08D080EA010000F050B85FEA79
:1052E000400C5FEA1C6CF6D14FF00040A0F5800046
:1052F00070470EF1020E2EF0030E5EF8044B2442AE
:1053000004D44FEA4102B2F17F4F11D84FEA400373
:10531000B3F17F4F0CD80ED14FEAD07CB2F17F4F62
:105320000CEB4C0C0CF1020C08BF4CEBD17C04E0F4
:105330004FF0080C01E04FEAD17C0CEB4C0324FA4F
:1053400003F404F00704B4F1040C06D20EEB840C51
:10535000BDE810404CF0010C6047DFE80CF0070896
:1053600002024FF00040A0F5800010BD0846420048
:1053700018BFD2F1807288BF00F0004010BDFF213D
:1053800041EAD050C005704790EA010F48BF81F054
:1053900000413FF5B8AE421A04D882F00042A0EBBB
:1053A000020011444FEAD0524FF07F4C1CEA410FEB
:1053B000A2EBD15318BF9CEA026F4AD04FF0004CC9
:1053C0004CEA00204CEA012121FA03FCB0EB0C0C62
:1053D0000FD412F0FE0F36D05FEA4C001DD500123C
:1053E00040EBC25038BF70471CF03F0F18BF7047EA
:1053F0000BE0A2F101025FEA1C2040EBC25038BF73
:1054000070471CF07F0F18BF7047C3F1200399400D
:1054100014BF401E20F00100704780084FEA12239D
:1054200008BF7047B0FA80FCA2EB0C02CCF1280C4C
:1054300060FA0CF093EA122F04BF00EBC2507047E1
:105440004FEAC3707047130A5FEADC1008BF704769
:10545000F6E79CEA026F04D010EA5C0F08BF002058
:10546000704710B5FFF745FF40DFF63E81F0004082
:105470007047FBF711B90CF00F03092B08BF082088
:1054800000F051800A2B0BD0082B18BF704708BFC3
:105490001CF0400F0AD04FF000004FF000017047A1
:1054A0001CF0400F18BF4FF0004070471CF0100F69
:1054B00008D020F0704300F07F4242EAD3014FEA67
:1054C0004370704700F0604021F07F4242EA0002E2
:1054D00001F07F4040EA727070474FF0FF0212EA1D
:1054E000D0521CBF92F0FF038B42C2BFD14200EBEF
:1054F000C1507047002A0AD0002B0BD0002900F0C1
:105500000040A4BF40F0FE4040F40000704700F0AF
:105510000040704743024FF00B0C18BF4CF0806CFA
:105520007FF44CAE70471CF4801F11D01CF4E02FA8
:1055300003D06FEACC31490070474FF04050EFF391
:10554000008222F0704242EA000282F30088704733
:105550004FF0000070470000845600080000000073
:105560000000000000000000000000000002000039
:105570000800000000000000000000008C56000839
:10558000000000000000000000000000000000001B
:105590000002000008000000000000000000000001
:1055A0007856000800000000000000000000000025
:1055B00000000000000000000102020304050607CD
:1055C00008090A0B0C0D0E0F10100000000000005F
:1055D00000000102030406070809000000000102A0
:1055E0000304000002400000000000A000000000D2
:1055F00005400000000000C8000000000C40000052
:105600000000409C00000000194000000020BCBECB
:105610000000000034400000BFC91B8E00000004E1
:10562000B5400000504BCFD06607E2CF010000002C
:105630006C4100003E8251AADFEEA7340100000059
:10564000D9420000DCB5A0E23A301F97FFFFFFFF10
:10565000B4450000FD25A0C8E9A3C14FFFFFFFFF2F
:10566000FF3F00000000008000000000FF3F00003E
:105670000000008000000000424C455175657565D2
:1056800000000000424C455461736B0073656E73FB
:105690006F725461736B0000D45600080000002044
:1056A0009C00000028010008705700089C000020A2
:1056B000A4200000440100081C000000430000007A
:1056C000F8FFFFFF0C0000000E0000000F000000BC
:1056D0002E0000000000000000000000000000009C
:1056E00001000000100000000000000000127A001D
:1056F00000000000000000000000000000000000AA
:105700000000000000000000000000000000000099
:105710000000000000000000000000000000000089
:105720000000000000000000000000000000000079
:105730000000000000000000000000000000000069
:105740000000000000000000000000000000000059
:105750000000000000000000000000000000000049
:105760000000000000000000AAAAAAAA0000000091
:04000005080000ED02
:00000001FF
