:020000040800F2
:100000003826002045020008733900082133000813
:1000100071390008A11700081D4500080000000004
:10002000000000000000000000000000AD0100081A
:100030001F18000800000000F10100087D410008C1
:100040005F0200085F0200085F0200085F0200080C
:100050005F0200085F0200085F0200085F020008FC
:100060005F0200085F0200085F0200085F020008EC
:10007000DD170008E91700085F0200085F020008AA
:100080005F0200085F0200085F0200085F020008CC
:100090005F0200085F0200085F0200085F020008BC
:1000A0005F0200085F0200085F0200085F020008AC
:1000B0005F0200085F020008E94100085F020008D3
:1000C0005F0200085F0200085F0200085F0200088C
:1000D0005F0200085F0200085F0200081145000887
:1000E0005F0200085F0200085F02000800F002F8EB
:1000F00000F04DF80AA090E8000C82448344AAF175
:100100000107DA4501D100F042F8AFF2090EBAE872
:100110000F0013F0010F18BFFB1A43F0010318473B
:10012000987B0000B87B0000103A24BF78C878C1E3
:10013000FAD8520724BF30C830C144BF04680C60ED
:10014000704700000023002400250026103A28BF35
:1001500078C1FBD8520728BF30C148BF0B60704739
:10016000662907F01681642900F0E480732900F005
:100170002885002070471FB500F05AFD04000020BC
:10018000002106F0FFFAE0601FBD10B510BD00F0C1
:100190004FFE1146FFF7EFFF04F084FA00F06DFE0A
:1001A00003B4FFF7F2FF03BC00F0B0FE224B196866
:1001B0000868B0E8F00F80F30988BFF36F8F4FF045
:1001C000000080F311884EF00D0E70470000000013
:1001D00006480068006880F3088862B661B6BFF31D
:1001E0004F8FBFF36F8F00DF00BF00BF08ED00E04F
:1001F000EFF30980BFF36F8F0F4B1A6820E9F00F00
:10020000106008B54FF0500080F31188BFF34F8F96
:10021000BFF36F8F05F0ECFB4FF0000080F3118807
:10022000BDE8084019680868B0E8F00F80F3098855
:10023000BFF36F8F704700BF28000020EFF30580E9
:10024000704700000948804709480047FEE7FEE77D
:10025000FEE7FEE7FEE7FEE7FEE7FEE7FEE7FEE776
:1002600004480549054A064B70470000E74100086D
:10027000ED00000838200020382600203822002019
:10028000382200200FB41CB5074B06AA7B446946F0
:100290000090059800F063FC0020694600F072FCB5
:1002A0001CBC5DF814FB0000F50800000FB41CB581
:1002B0000C0007AA009001D02044401E074B7B444D
:1002C00069460190069800F04AFC002C03D069466C
:1002D000002000F057FC1CBC5DF814FBCD080000AA
:1002E00070B50C460546012A05D02878800600D551
:1002F000EA69002302E0012305E05B1C934202D27D
:10030000E05C0028F9D1A869E618C01AA861286A3B
:10031000184428622846AFF3008004E0D5E90121A3
:1003200014F8010B9047B442F8D32846AFF300808D
:1003300070BD00002DE9F0410646002410687529C3
:10034000314616A510D0AFF30080002802DA4042F3
:1003500013A507E031688A0701D512A502E0490715
:1003600004D511A5012401E0AFF3008000210A2289
:1003700006F1240709E0B0FBF2FCB0FBF2F302FB4C
:100380001C00303078541846491C0028F3D123460D
:100390002A463046BDE8F04100F073B90000000085
:1003A0002D0000002B000000200000002DE9F04788
:1003B0004FF0000A89460446C0F820A02046E168B4
:1003C0008847002876D0252806D0D4E90121904717
:1003D000206A401C2062F1E7E1682046002588473A
:1003E000C4F81CA006460027C4F818A02A2E09D07D
:1003F000304604F0D1F838B304EB8708303EC8F833
:10040000186019E059F8041B204604EB870291613B
:10041000E1688847012F064618D1E069002820DAF4
:1004200025F020051DE0D8F8180000EB800006EB51
:1004300040003038C8F818002046E1688847064672
:1004400004F0AAF80028EED1012F0AD02E2E08D1F0
:100450002046E16888477F1C0646022F45F02005AC
:10046000C4DBA069002803DA404245F00105A06121
:10047000E80701D025F01005B6B1A6F14100192812
:1004800002D8203645F400654A46314620462560AC
:100490004D46FFF765FE58B1012806D0ED1D25F049
:1004A000070000F1080989E704E005F1040985E780
:1004B00030468AE7206ABDE8F08740EA010310B5BC
:1004C0009B070FD1042A0DD310C808C9121F9C42E4
:1004D000F8D020BA19BA884201D9012010BD4FF0D6
:1004E000FF3010BD1AB1D30703D0521C07E0002023
:1004F00010BD10F8013B11F8014B1B1B07D110F880
:10050000013B11F8014B1B1B01D1921EF1D1184682
:1005100010BD10B5431C02E010F8011B71B181073A
:10052000FAD14FF0013202C88C1A8C4314EAC2117E
:10053000F9D0C01A0A0603D0C01E10BDC01A10BDE3
:100540000A0401D0801E10BD0902FCD0401E10BD5F
:10055000032A40F2308010F0030C00F0158011F8EF
:10056000013BBCF1020F624498BF11F801CB00F8C7
:10057000013B38BF11F8013BA2F1040298BF00F81B
:1005800001CB38BF00F8013B11F0030300F01D83DD
:10059000083AC0F0088051F8043B083A51F804CBFF
:1005A000A0E80810F5E7121D5CBF51F8043B40F8C5
:1005B000043BAFF30080D20724BF11F8013B11F8D0
:1005C00001CB48BF11F8012B24BF00F8013B00F814
:1005D00001CB48BF00F8012B704702F0FF0343EA4C
:1005E000032242EA024200F002B84FF0000204295E
:1005F000C0F0128010F0030C00F01B80CCF1040C52
:10060000BCF1020F18BF00F8012BA8BF20F8022B85
:10061000A1EB0C0100F00DB85FEAC17C24BF00F82B
:10062000012B00F8012B48BF00F8012B70474FF059
:10063000000200B5134694469646203922BFA0E832
:100640000C50A0E80C50B1F12001BFF4F7AF09073E
:1006500028BFA0E80C5048BF0CC05DF804EB89002F
:1006600028BF40F8042B08BF704748BF20F8022B72
:1006700011F0804F18BF00F8012B7047704770478A
:1006800070472DE9F0470D4699469246044600F121
:1006900024080168880604D5E06921F01001216072
:1006A00000E00120A84201DD471B00E00027A1690E
:1006B0007A1902EB0900081AA0612078C00602D45A
:1006C0002046AFF30080002608E0D4E901211AF8A3
:1006D00006009047206A401C761C20624E45F4DBE1
:1006E0002078C0060AD52046AFF3008006E0D4E9A2
:1006F000012130209047206A401C2062381EA7F15B
:100700000107F4DC07E0D4E9012118F8050090475F
:10071000206A401C2062281EA5F10105F3DC20465A
:10072000AFF300802078000602D50220BDE8F087F4
:100730000120FBE770472DE9FF4F0C461E464FF0A6
:10074000FF378BB0D2E90001DDF860800A908A465D
:10075000C1F30A5505B93D46002108464FF0000097
:10076000BAF1000F00F4400005DA00EB80004FF40E
:10077000400101EA50004FEA9059B9F1010F00DD44
:10078000B9460A9850EA4A000ED044F61050A5F235
:10079000FF3545432F14B8F1000F1ED07542291EB6
:1007A0001EDDC9F100021CE0B8F1010F4FF000009E
:1007B00001D0302103E0F24305E02154401CB04257
:1007C000FBDB30460022002121540B99C1F8088040
:1007D000C1E900200FB0BDE8F08FBD1B6D1CDEE746
:1007E0004A4600DA694206A800F0ACFA06AB93E884
:1007F000070003AB83E8070050460A9900F08DFB21
:100800008DE80700A0F500501F3800900398002DD8
:100810000ADD42F21F014A460844002303A903905F
:10082000684600F0F6FD09E0A0F500504A461F3882
:10083000002303A90390684600F000FE8DE807003E
:100840000004000C03D04FF0FF30410800E01046D8
:10085000B8F1000F03D00022009215461EE0751E6D
:1008600005D400F0E9F9303262556D1EF9D5B34672
:100870000122084302D000227F1C04E020783028A7
:1008800001D100227F1E002A099784D01DE0112D7E
:1008900007DA00F0D1F9303262556D1C50EA0102DE
:1008A000F5D1084302D00098C8B10EE00021681EBF
:1008B00005E0235C625C63542254401E491C814263
:1008C000F7DBAB46A81B401E0990002004F80B0084
:1008D0000B98099AC0F80880C0E9002B7AE7112626
:1008E0004FF0000857E72DE9F04F88460446D21D27
:1008F00022F0070191B0D1E90001CDE90A0103F02E
:1009000027FE02460B98C00F01D02D2007E020687B
:10091000810701D52B2002E0202101EAC000032A33
:10092000099001D0072A05DB03464146204600F026
:10093000C9F90BE12078800601D5E06900E00620C6
:10094000B8F1650F814606D0B8F1660F18D0B8F13E
:10095000670F70D131E00020B9F1110F009001DB79
:10096000112301E009F101030AAA01A90CA8FFF76C
:10097000E2FEDDE90C70002609F10105834647E03F
:1009800001204B4600904FF000470AAA01A90CA88D
:10099000FFF7D1FEDDE90DB00C995D46002610B9D8
:1009A00009F101000D18B9EB050003D4C0F1FF36C1
:1009B00009F10105A5EB09002BE0B9F1010F01DAFE
:1009C0004FF001090020B9F1110F0090484601DDF8
:1009D000112300E003460AAA01A90CA8FFF7ABFE09
:1009E000DDE90C704D4600268346207800070AD4C6
:1009F000AB4500DA5D4601A8012D04DD411911F86F
:100A0000011C302907D04F4502DA17F1040F04DA30
:100A1000012082460FE06D1EEEE7002F02DCED1B89
:100A20003E4403E0781CA84200DD7D1CB81B00F1A9
:100A3000010A4FF000472078000703D4AA4501DBE4
:100A40004FF0FF3A0021B7F1004F0DF143088DF848
:100A5000431024D002202B23002F01DA7F422D23C4
:100A60000A21021EA0F1010000DC5FB197FBF1FC3E
:100A700097FBF1F201FB1C7C17460CF1300C08F8D7
:100A800001CDEEE7A8F1010003702188090501D529
:100A9000452100E06521A0F1010800F8011C09983A
:100AA0000FA9A1EB0807FF1D00B10120411901EBBF
:100AB000EA70A1693844081A401EA0612078C00677
:100AC00002D42046AFF30080099828B1D4E901216F
:100AD0009047206A401C20622078C00622D520461C
:100AE000AFF300801EE0002E04DBB34502DD01A859
:100AF000805D00E03020D4E901219047206A401C4D
:100B00002062761CAAF101005FEA000A0AD100F017
:100B10008FF8C0680168405CD4E901219047206AE1
:100B2000401C2062281EA5F10105DCDC07E0D4E9A9
:100B3000012118F8010B9047206A401C2062381EE2
:100B4000A7F10107F3DC2046AFF30080032011B0CA
:100B500041E6000001694A1C02610878704700B54F
:100B60008FB0CDE901310021059105497944CDE9E6
:100B7000031011466846FFF719FC0FB000BD0000D6
:100B8000E5FFFFFF0A6802F8010B0A607047D1E930
:100B900000239A4202D2531C0B601070704710B5AC
:100BA000436913B1AFF3008001E0FFF799FB012027
:100BB00010BD127800F124010A7000224A7001224F
:100BC000EDE711684FF0FF32E9E710B5203AC0F0C9
:100BD0000B80B1E81850203AA0E81850B1E818503E
:100BE000A0E81850BFF4F5AF5FEA027C24BFB1E87B
:100BF0001850A0E8185044BF18C918C0BDE81040EC
:100C00005FEA827C24BF51F8043B40F8043B08BFF4
:100C10007047D20728BF31F8023B48BF11F8012BBB
:100C200028BF20F8023B48BF00F8012B70470000A6
:100C300000487047F81F002030B5B0F10A024FEAB3
:100C4000900E71F100034EEA817EB0EB0E0061EB75
:100C500091014FEA101E4EEA017E10EB0E0041EBAF
:100C600011114FEA102E4EEA016E10EB0E0041EB0F
:100C700011214FEA104E4EEA014E10EB0E0041EBEF
:100C80001141401841F100014FEAD00040EA4170A3
:100C90004FEAD10110EB80054FEA810444EA9074D9
:100CA00044EB01046D1944EB0404521BA3414FF0C3
:100CB000000348BF0A3200D530BD401C41F100019D
:100CC00030BD00002DE9F0411F46044603260168AF
:100CD000072A01F4006004DB08B116A505E016A59B
:100CE00003E008B115A500E015A521F01000206073
:100CF000A069C01EA0610FB1401EA0612046AFF3E5
:100D000000804FB1D4E9012138469047206A401C49
:100D10002062C01C206206E0206AFAE7D4E90121C3
:100D200015F8010B9047761EF8D22046AFF30080ED
:100D3000BDE8F0814E414E006E616E00494E4600A6
:100D4000696E66002DE9F047814616468AB035483F
:100D500078440DC88DE80D0032487844801C03ACFF
:100D60000DC884E80D0041F69B300844372190FB04
:100D7000F1F290FBF1F5A5F1800501FB12041B3C9B
:100D800002D56442012000E00020DFF898A08046F0
:100D90000027FA44AAF1BE0A0EE0E0070AD0324664
:100DA000684607EB470101230AEB810100F046FB8F
:100DB0008DE8070064107F1C002CEED1194F7F4492
:100DC000AE3F19E0E80715D007EB04100DF1180A43
:100DD00090E80E008AE80E00C068F04201D1981930
:100DE00008903246012306A903A800F027FB03ABB5
:100DF00083E807006D10641C002DE3D14FF0010360
:100E000032466946B8F1000F03A802D000F001FB9A
:100E100001E000F013FBC9E90001C9F808200AB09D
:100E2000BDE8F087086F000000487047D81F002019
:100E30007546FFF7F9FFAE4605006946534620F0B8
:100E40000700854618B020B5FFF70AFABDE8204034
:100E50004FF000064FF000074FF000084FF0000B76
:100E600021F00701AC46ACE8C009ACE8C009ACE829
:100E7000C009ACE8C0098D46704710B50446AFF311
:100E800000802046BDE81040FFF78AB94FF0013CD2
:100E900050F8042B51F8043B9A4221D1A2EB0C03E9
:100EA000934313EACC1317D150F8042B51F8043BA9
:100EB0009A4215D1A2EB0C03934313EACC130BD146
:100EC00050F8042B51F8043B9A4209D1A2EB0C03D1
:100ED000934313EACC13DBD04FF00000704700BF00
:100EE000D01A01BAB1FA81F101F0180122FA01F029
:100EF000CB40C1F12001DBB2C0B2C01A2CFA01F321
:100F0000D11A914311EAC311E6D170470149182063
:100F1000ABBEFEE72600020070475FEA400C08BF48
:100F200091F0000F4FEA8C234FEAC12243EA51515E
:100F30004FEA1C5018BF00F5F0404FEA300018BFD0
:100F400041F000415FEA6C5C00F02980BCF1FF3F9A
:100F500008BF40F080407047130C06BF12044FF0EA
:100F6000100C4FF0000C130E04BF12020CF1080C11
:100F7000130F04BF12010CF1040C930F04BF920075
:100F80000CF1020CD30F04BF52000CF1010C1146FE
:100F90004FF00002A0F11F00A0EB0C00704711F011
:100FA000004F08BF704731F000413FF4D5AF0B0C44
:100FB00006BF09044FF0100C4FF0000C0B0E04BFDD
:100FC00009020CF1080C0B0F04BF09010CF1040C11
:100FD0008B0F04BF89000CF1020CCB0F04BF49003A
:100FE0000CF1010CCCF12003A0EB0C0022FA03F36E
:100FF00002FA0CF241EA030100F10100704720F00F
:101000007F4C80EA030023F07F47ACEB070303F536
:101010007C5300F0004003F1FF032DE980494FEAC3
:10102000154B09B44FEA144325EA0B4E24EA034852
:101030000FF2042606EB132749083E785FEA3202D6
:1010400003FB0667C7F5000707FB06F64FEA5437B0
:101050004FEAD64606F1020607FB066CCCF1005CAF
:101060004FEA1C472CEA074C07FB06F40CFB06F57D
:1010700004EB15464FEA961634BF00204FF00040AF
:101080004FEAD13706FB07FC4FEA1C4C0CFB0BF771
:10109000D21B03FB0CF761EB07010CFB0EF7B0EB67
:1010A000074072EB17420CFB08F734BFA2EB074274
:1010B000B2EB074261EB17414FEA0C444FEA91074C
:1010C00006FB07FC4FEA1C4C0CFB0BF7B0EBC740D0
:1010D00072EB573203FB0CF734BFA2EBC742B2EB03
:1010E000C74261EB57310CFB0EF7B0EBC70072EB58
:1010F00057720CFB08F734BFA2EBC702B2EBC70272
:1011000061EB5771039F4FEA816141EA921104EB51
:10111000CC044FEAD1374FEA826206FB07FC42EA71
:1011200090124FEA80604FEA1C4C0CFB0BF7D21B6D
:1011300003FB0CF761EB07010CFB0EF7B0EB07406C
:1011400072EB17420CFB08F734BFA2EB0742B2EB7D
:10115000074261EB17414FEA8C554FEA910704EBC8
:101160009C2406FB07FC4FEA1C4C0CFB0BF7B0EB76
:10117000C74072EB573203FB0CF734BFA2EBC742F8
:10118000B2EBC74261EB57310CFB0EF7B0EBC70077
:1011900072EB57720CFB08F734BFA2EBC702B2EB3D
:1011A000C70261EB577115EB4C254FEA816141EAAB
:1011B00092114FEA82624FEAD13742EA901206FB5F
:1011C00007FC44F100044FEA80604FEA1C4C0CFB22
:1011D0000BF7D21B03FB0CF761EB07010CFB0EF7BF
:1011E000B0EB074072EB17420CFB08F734BFA2EBE1
:1011F0000742B2EB074261EB174115EB1C154FEAB2
:10120000813141EA92414FEA823242EA90424FEA0A
:1012100080304FEA0C7644F1000448EA03434EEA7A
:101220000B484FF0000EB2EB080C71EB030724BF24
:10123000624639464EEB0E0E4FF0000B001852413D
:1012400049414BEB0B0BB2EB080C71EB03077BF145
:10125000000B24BF624639464EEB0E0E4FF0000BDA
:101260000018524149414BEB0B0BB2EB080C71EBF0
:1012700003077BF1000B24BF624639464EEB0E0E8E
:1012800051EA020718BF46F0010616EB0E7655F13B
:10129000000254F1000103D5BDE88901BDE80088D2
:1012A000BDE88901BDE80048B619524141EB010192
:1012B000A3F10103704780807F7E7D7C7B7A797803
:1012C000777676757473727171706F6E6E6D6C6C0B
:1012D0006B6A6A69686867666665646463636261AD
:1012E0006160605F5F5E5E5D5D5C5C5B5B5A5A592E
:1012F000595858575756565555555454535352529A
:101300005251515050504F4F4F4E4E4D4D4D4C4CF1
:101310004C4B4B4B4A4A4A4949494848484747473A
:101320004746464645454544444444434343434277
:10133000424242414141002B9C4630D477002BD0A1
:101340001CB54FEA370703B44FF010004FF01001FF
:10135000BAF1000F06D0BCF1000FDCBF40F008006E
:1013600040F008014FF000000FBCBDE810400BF149
:10137000010BBBF1010F08BF5FEA170722BF12F193
:10138000010211F101014FF0004143F1000300F0AF
:10139000004043EA00007047F9D35708D0E746EA17
:1013A000064613F1400F4FEA16461FDD13F1200FDA
:1013B000DFBF16430A46002120335B42BED0C3F193
:1013C000200746EA064602FA07F74FEA164646EABB
:1013D0000706C3F1200722FA03F201FA07F721FA00
:1013E00003F14FF0000342EA0702A7E746EA0206CC
:1013F00046EA06464FEA164646EA0106BCBF46EAFA
:101400000646360C4FF000034FF000024FF000018B
:1014100094E72DE9804C9A46934670B491E83800E1
:1014200007C831EA400C48BF34EA430C03D5FFF744
:10143000E6FDFFF780FFF0BCBDE8008C2DE9804C95
:101440009A46934670B491E8380007C810F0804F70
:1014500008BF13F0804F03D100F005F8FFF76BFFD2
:10146000F0BCBDE8008C20F07F4780EA030023F049
:101470007F4C07EB0C03A3F57C5300F00040A3F175
:10148000FE0392F0000F00F0B38095F0000F00F023
:1014900077802DE901494FEA11404FEA144621EACD
:1014A000004800FB06FC24EA064708FB06F607FB9B
:1014B00008F800FB07F718EB06484CEB164C4FEA10
:1014C000124B18EB07484FEA15464CEB174022EA3F
:1014D0000B4E0BFB06FC25EA06470EFB06F607FB48
:1014E0000EFE0BFB07F71EEB064E4CEB164C4FF0B7
:1014F00000061EEB074E4CEB174B18EB0B0840F1A8
:10150000000018EB0E0B58EB000840F100008F1A9A
:101510004FF000013CBFC943661B14BFB5EB040C80
:1015200000213CBFC943F61B4FEA17444EEA8E0E1A
:1015300027EA04454FEA1C4704FB07622CEA074CE4
:1015400005FB07F70CFB05F604FB0CFC16EB074646
:1015500042EB174216EB0C4642EB1C421BEB060615
:1015600058EB0202414146EA9E0601D5BDE80189D9
:10157000B619524141EB0101A3F10103BDE8018914
:101580004FEA14454FEA114724EA054621EA074C81
:1015900005FB07F406FB07F70CFB06F105FB0CFC4B
:1015A00011EB074144EB17444FEA124711EB0C4192
:1015B00044EB1C4422EA074C05FB07F206FB07F745
:1015C0000CFB06F605FB0CFC16EB074642EB17423C
:1015D00016EB0C4642EB1C456A1854F1000148BF5B
:1015E0007047B619524141EB0101A3F10103704765
:1015F00095F0000F37D04FEA11424FEA144721EA25
:10160000024624EA074C02FB07F106FB07F70CFB36
:1016100006F402FB0CFC14EB074441EB17414FEAC4
:10162000154714EB0C4441EB1C4125EA074C02FB27
:1016300007F506FB07F70CFB06F602FB0CFC16EBA6
:10164000074645EB174516EB0C4645EB1C421219B5
:1016500051F1000148BF7047B619524141EB0101F9
:10166000A3F1010370474FEA14454FEA114724EAFA
:10167000054621EA074C05FB07F106FB07F70CFBC3
:1016800006F24FF0000605FB0CFC12EB074241EBA3
:10169000174112EB0C4251EB1C4148BF70479218A6
:1016A00041EB0101A3F10103704700003EB5282082
:1016B00003F00DF84FF0FF34012301AA712109480E
:1016C000009400F0D5FC9DF80400000709D406A0A2
:1016D00003230068029002AA71210094014800F0DF
:1016E000EFFD3EBDBC000020BE0800007FB50546F2
:1016F00026A00C46006803900020461E0190029030
:10170000032303AA71210096214800F0D9FD4B2044
:1017100002F0DDFF062301AA71211D48009600F0AA
:10172000A7FC642002F0D3FF9DF8040000062CD42F
:101730009DF807009DF80610000900EB01109DF8C8
:10174000051000EB013005F05FFC124905F0A4FC28
:101750006FF01306314605F050FE20609DF807003B
:101760009DF808100007000B00EB01209DF8091000
:10177000084405F049FC084905F08EFC314605F0A7
:101780003CFE064905F090FD28607FBDAC330000AB
:10179000BC0000200000C84200004843000048424E
:1017A000FEE72DE9F04188461D4606460024114615
:1017B000069F05F03DFC04D23146284602F076FB38
:1017C00001244146304605F033FD04D23146384607
:1017D00002F06CFB01242046BDE8F081014800F0D6
:1017E00065B90000A0010020014800F05FB90000C9
:1017F000E401002030B590F840500124AC40C56BA6
:101800006C60046863604368102B036803D09960C0
:101810000068C26030BD9A600068C16030BD70472A
:101820002DE9F04702005B485B4C5C4DD0E9007845
:101830008A4632D0012A59D00146022AD1E90278DB
:101840007ED0032A27D18146404605F009FB804619
:101850000E46504605F092F822462B4605F0E2F877
:1018600004460D46384605F0FBFA22462B4604F0A6
:10187000D1FF4246334605F0D3F90CD226464C46FA
:10188000D9F8080005F0ECFA32462B4604F0C2FF06
:1018900004F08EFFA060BDE8F0878146384605F071
:1018A000DFFA06460F46504605F068F822462B46FA
:1018B00005F0B8F804460D46404605F0D1FA224638
:1018C0002B4604F0A7FF32463B4605F06FF8E2D204
:1018D00026464C46D9F8040005F0C2FA32462B469B
:1018E00004F098FF04F064FF6060D4E7814640464E
:1018F00005F0B6FA06468846504605F03FF82246FF
:101900002B4605F08FF804460D46384605F0A8FA38
:1019100022462B4604F07EFF3246434605F080F90E
:10192000B9D226464C46D9F8000005F099FA32465D
:101930002B4604F06FFF04F03BFF2060ABE7FFE7AE
:101940008146384605F08CFA06460F46504605F0AB
:1019500015F822462B4605F065F804460D4640462C
:1019600005F07EFA22462B4604F054FF32463B46F1
:1019700005F01CF88FD226464C46D9F80C0005F02D
:101980006FFA32462B4604F045FF04F011FFE06089
:1019900081E70000C81F00209A9999999999B93F49
:1019A00005480449016005494160054981600549D0
:1019B000C16070470000F041C81F002000002041B6
:1019C00000008C420000A04172B6FEE710B590F80E
:1019D00021100022022905D00421816380F82020F3
:1019E000012010BD01680B6823F00E030B60016835
:1019F0000B6823F001030B6090F84030C46B0121A9
:101A000001FA03F3636080F8211080F8202010466B
:101A100010BD000010B590F821100024022903D059
:101A20000421816301243DE001680A6822F00E026E
:101A30000A6001680A6822F001020A601A4A016815
:101A4000914201D1012121E0174A1432914201D182
:101A500010211BE0144A2832914201D1891515E06A
:101A6000114A3C32914201D189140FE00E4A5032A2
:101A7000914202D14FF4803108E00B4A6432914226
:101A800002D14FF4801101E04FF08071064A083A0C
:101A90005160012180F82110002180F82010416B55
:101AA00001B18847204610BD080002402DE9F05FD3
:101AB000C16B0C6801680B68D0F840C0042202FAC0
:101AC0000CF2494DDFF824A1494E4A4FDFF828B106
:101AD000DFF828E122422CD05A072AD50A6892065C
:101AE00003D40A6822F004020A600168A94201D105
:101AF000042219E0514501D1402215E0B14202D142
:101B00004FF4806210E0B94202D14FF480420BE002
:101B1000594502D14FF4802206E0714502D14FF4BD
:101B2000800201E04FF080622F4908394A60C16AA3
:101B30003BE04FF0020808FA0CF818EA040F4FF0E7
:101B400000094FF0010235D05FEA837832D50B6887
:101B50009B0605D40B6823F00A030B6080F8212054
:101B60000168A94201D1022219E0514501D1202288
:101B700015E0B14202D14FF4007210E0B94202D137
:101B80004FF400520BE0594502D14FF4003206E009
:101B9000714502D14FF4001201E04FF0007212497A
:101BA00008394A6080F82090816A00291AD0BDE87F
:101BB000F05F0847082505FA0CF5254212D01B07EF
:101BC00010D50B6823F00E030B6090F84010C36B28
:101BD00002FA01F15960826380F8212080F8209098
:101BE000016BE2E7BDE8F09F080002401C000240E4
:101BF0003000024044000240580002406C000240A5
:101C000030B528B308C8134914221944B1FBF2F1C6
:101C10008900C16310498163022141771A6843F644
:101C2000F0718A43D0E900142143D0E902452C43E6
:101C300021430469214344692143846921431143B9
:101C4000196000214163012242770177084630BDC7
:101C5000012030BDF8FFFDBF0000024070B5044612
:101C600090F82000002501280CD0012084F82000E5
:101C700094F821600020012E06D084F8200002256F
:101C8000284670BD022070BD022684F82160A06342
:101C90002068066826F0010606602046FFF7AAFDC8
:101CA000E06A00282068016802D041F00E0106E0D9
:101CB00021F0040101602068016841F00A0101601F
:101CC0002068016841F001010160D9E770B5044660
:101CD00000F004F90546601C02D004480078044472
:101CE00000F0FCF8401BA042FAD370BD18000020A1
:101CF0002DE9F84FDFF8B8910024A9F1040B234631
:101D00000F2709F1040AABF1040EC9E00125A54033
:101D10002A40AA427DD1674ED1F804C0ACEB060838
:101D2000B44532D014DCBCF1030F3AD009DCBCF16D
:101D3000000F2AD0BCF1010F1CD0BCF1020F31D131
:101D40001DE0BCF1110F17D0BCF1120F2AD119E020
:101D5000B8F5881F19D006DCB8F5803F15D0B8F566
:101D6000801F1FD111E0B8F5001F0ED0B8F5041F79
:101D700018D10AE0CB6815E0CB681B1D12E0CB68D8
:101D800008330FE0CB680C330CE08B682BB1012BD0
:101D90004FF0080303D0456104E0042302E005612D
:101DA00000E00023FF2A01D8064601E000F1040606
:101DB0004FEA840501D9A5F12005D6F8008007FA7D
:101DC00005FC28EA0C0803FA05F548EA0508C6F8F8
:101DD00000804D68ED0062D5374DAE6946F00106D2
:101DE000AE61AD6924F0030605F001050095334DA1
:101DF00006EB050CDCF80850A607360F07FA06F8C4
:101E000025EA0805DFF8B880404503D14FF0000807
:101E100017E044E0DFF8AC80404502D14FF0010804
:101E20000FE0DFF8A480404502D14FF0020808E03F
:101E3000DFF89880404502D14FF0030801E04FF0F1
:101E4000040808FA06F848EA0508CCF808804D6846
:101E5000D9F80060ED024D4601D5164300E09643E7
:101E60002E604D68DAF80060AD02554601D5164384
:101E700000E096432E604D68DBF80060AD035D46E0
:101E800001D5164300E096432E604D68DEF80060F1
:101E9000ED03754601D5164300E096432E60641CA1
:101EA0000D682A46E5407FF431AFBDE8F88F0000A9
:101EB0000804014000001110001002400000014021
:101EC00000080140000C01400010014000140140D6
:101ED0008068084000D001207047000001488068F9
:101EE000704700001800002070B5040025D094F859
:101EF0003D00002520B984F83C50204600F076FAD9
:101F0000242084F83D002068016821F0010101606F
:101F10002068016841F4004101602068016821F4F3
:101F20000041016000F010FC4D4A6168914201D807
:101F30004C4900E04C49884201D2012070BD4B4918
:101F40002368B0FBF1F15E6826F03F060E435E6049
:101F50006368934206D94FF4967359434FF47A73EA
:101F6000B1FBF3F12368491C1E6A26F03F0631439A
:101F700019626168914210D84900401EB0FBF1F22D
:101F8000521CC2F30B02042A01D2042022E0B0FB4F
:101F9000F1F0401CC0F30B001CE0A268F2B301EBAF
:101FA000C10303EB0116431EB3FBF6F35B1C43F4C2
:101FB00080431B0549D092B301EBC10202EB011132
:101FC000401EB0FBF1F0401CC0F30B0040F4804019
:101FD00040F400402168CA694CF6FF739A431043ED
:101FE000C861D4E9071001432068026822F0C002EA
:101FF00011430160D4E9030101432068826848F27B
:10200000FF339A4311438160D4E9050108432168F5
:10201000CA6822F0FF021043C86001E00EE016E03B
:102020002068016841F0010101602564202084F8E6
:102030003D00256384F83E50002070BD01EB410651
:10204000431EB3FBF6F35B1CB3E70120C2E701EBD1
:102050004101401EB0FBF1F0401CC0F30B00B7E79C
:10206000A086010080841E0000093D0040420F0050
:102070002DE9F84F0025DDF82890984617468A4646
:1020800004460095FFF72AFF064694F83D002028F5
:102090007AD11923012286492046009601F048FA98
:1020A0000028F5D194F83C0001286DD0012084F877
:1020B0003C0020680168C90703D1016841F00101B3
:1020C00001602068016821F400610160222084F829
:1020D0003D00102084F83E0025646762A4F82A8041
:1020E000608D20857348E06233464A46514620465B
:1020F00001F02EF900287CD1208DDFF8BC8120274B
:1021000068B1012814D00228206801681ED041F46B
:10211000806101602068416980690090BBE02068AF
:10212000416981690091016841F400710160B2E088
:102130002068016821F48061016072B620684169FD
:1021400081690091016841F400710AE041F4006185
:10215000016072B62068416981690091016821F4CB
:102160008061016062B696E0032865D801280CD032
:1021700002284B464FF000024146204600960BD005
:1021800001F0D6F9A8BB0CE090E032464946204663
:1021900001F074FA68BB71E001F0CAF948BB72B68D
:1021A00033E02068016821F48061016072B6206824
:1021B0000069616A0870606A401C6062208D401E80
:1021C0002085608D401E60853C4846F2A81100685D
:1021D000B0FBF1F0C0EBC00000EB80000090401EAF
:1021E000009007D020684069C04340070DD5009893
:1021F000F5E727E044F8305F6773A573206940F086
:102200002000206162B625731CE02068016841F45B
:102210000071016020680069616A0870606A401C92
:102220006062218D491E2185618D491E618562B6DE
:1022300021680969017025E032464946204601F0CF
:102240001DFA10B10120BDE8F88F20680069616AAD
:102250000870606A401C6062208D401E81B221853A
:10226000608D401E608520684269D243520712D4B7
:10227000032903D1016821F48061016020680069AD
:10228000616A0870606A401C6062208D401E208573
:10229000608D401E6085208D00287FF465AF84F836
:1022A0003D7084F83E5084F83C50CCE70220CAE7E9
:1022B000020010000000FFFF0400010024000020C5
:1022C0002DE9F84F1F4690468A460446DDF82890CF
:1022D000FFF704FE054694F83D0020287FD119231E
:1022E000012240492046009501F022F9002876D1CC
:1022F00094F83C00012872D0012084F83C0020684A
:102300000168C90703D1016841F00101016020683B
:10231000016821F400610160212084F83D00102053
:1023200084F83E0000262664C4F824806785608D0A
:1023300020852D48E0622B464A465146204601F052
:102340007DF890B9206841698069009036E02A469E
:102350004946204601F0CAF950B1206C042804D146
:102360002068016841F4007101600120BDE8F88F28
:10237000606A216800780861606A401C6062618D53
:10238000491E6185218D491E89B2218522685369C4
:10239000DB435B070BD451B100781061606A401CCD
:1023A0006062608D401E6085208D401E20852A461B
:1023B0004946204601F090F80028CED1208D002813
:1023C000C5D154F83D0B016841F400710160202033
:1023D00004F81E09E67766770020C7E7FFE70220CA
:1023E000C4E70000020010000000FFFF10B586B037
:1023F0000021009101910291039100680F498842E8
:102400001AD10F4CA06940F00800A061A06969468C
:1024100000F008000490C0200090122001900320DA
:1024200003900848FFF764FCE06940F40010E061A5
:10243000E06900F40010049006B010BD00540040A4
:1024400000100240000C01400248816802781144EB
:102450008160704718000020074810B5016841F0FE
:1024600010010160032000F0A7F80F2000F006F82B
:1024700000F050F8002010BD0020024030B50546A5
:102480001F4887B0C16941F00401C161C06906A954
:1024900000F00400009001A800F036F90498B0B1F3
:1024A00000F052F940001749174AB0FBF1F1174804
:1024B000491E0260416040F2E7320021C0E9032179
:1024C0008160816100F04CFB040003D015E000F056
:1024D0003BF9E8E70D4800F071FB04000DD11E2028
:1024E00000F03CF8102D07D2002229461E2000F0F3
:1024F00043F80748056000E0012407B0204630BDDE
:102500000010024040420F00000800402802002056
:102510001C0000200F4808B5816941F0010181616C
:10252000816901F001010091C16941F08051C161EF
:10253000C069002200F0805000900F21901E00F032
:102540001BF80548416821F0E06141F000714160ED
:1025500008BD00000010024000000140002809DB17
:1025600000F01F02012191404009800000F1E020AD
:10257000C0F8001170470000F0B40E4B1B680C4609
:10258000C3F30223C3F10705042D00D90425191D47
:10259000072901D2002300E0DB1E012606FA05F11F
:1025A000491E214099409E40761E16403143F0BCA2
:1025B00001F0E2BF0CED00E0064900F007020868F8
:1025C0004FF6FF03184040EA0220034A1043086018
:1025D000704700000CED00E00000FA052DE9F0471F
:1025E0000F46050061D0434E306800F00700B84246
:1025F00009D2306820F0070038433060306800F0BE
:102600000700B84251D128683B4C810712D54007DA
:1026100003D5606840F4E06060602878000703D567
:10262000606840F4605060606068A96820F0F00065
:10263000084360602878C00728D06868012810D057
:102640002168022810D0890700292EDA616821F05C
:10265000030101436160FFF741FC804641F2883984
:102660000DE021688903EFE78901EDE7FFF736FC0C
:10267000A0EB0801494502D90320BDE8F087606856
:10268000696800F00C00B0EB810FEFD1306800F00A
:102690000700B8420BD9306820F00700384330609B
:1026A000306800F00700B84201D00120E5E7287843
:1026B000400705D56068E96820F4E0600843606081
:1026C0002878000706D56068296920F4605040EA40
:1026D000C100606000F058F86168084AC1F3031156
:1026E000515CC8400649086006480068FFF7C6FE0E
:1026F0000020C2E70020024000100240427500089E
:10270000240000201C0000200F2202600C4A5368A5
:1027100003F003034360536803F0F00383605368DE
:1027200003F4E063C36052684FF4E06303EAD2024B
:1027300002610448006800F007000860704700006C
:102740000010024000200240044805490068496822
:10275000044AC1F30221515CC840704724000020A4
:102760000010024052750008044805490068496895
:10277000044AC1F3C221515CC840704724000020C4
:1027800000100240527500080E4A51680E4801F0D0
:102790000C03042B11D0082B0FD10C48C1F3834339
:1027A000C903C05C0AD55168084AC1F34041921E72
:1027B000515C054A5043B0FBF1F07047044948436F
:1027C000704700000010024000127A0032750008C5
:1027D00000093D002DE9F84F040070D02078C04D6D
:1027E000C00749D06868C0F38100012807D0686835
:1027F000C0F38100022809D16868C00306D52868A3
:10280000800339D560680028E7D035E06068B0F50E
:10281000803F0BD010B1B0F5A02F11D0286820F464
:1028200080302860286820F4802002E0286840F486
:1028300080302860606890B1FFF750FB06460AE0E0
:10284000286840F480202860F0E700BFFFF746FBCF
:10285000801B642873D828688003F7D50CE0FFF745
:102860003DFB064605E000BFFFF738FB801B6428F0
:10287000F0D828688003F7D420789A4E80074FF06C
:1028800001094FF0000839D5686810F00C0F07D027
:102890006868C0F38100022809D16868C00306D4C3
:1028A0002868800714D52069012808D110E0206924
:1028B000B0B1C6F80090FFF711FB074605E00AE14A
:1028C000FFF70CFBC01B0228C4D828688007F7D587
:1028D0002868616920F0F80040EAC10028600DE036
:1028E000C6F80080FFF7FAFA074604E0FFF7F6FAA9
:1028F000C01B022823D828688007F7D42078000757
:102900002CD57948A169D9B1C0F80090FFF7E6FA53
:10291000074604E0FFF7E2FAC01B02280FD8686AF6
:102920008007F7D571484FF4FA510068B0FBF1F019
:10293000009000BF0098411E0091FAD20EE080E0A6
:10294000C0F80080FFF7CAFA074604E0FFF7C6FAAE
:10295000C01B022875D8686A8007F7D42078400722
:1029600060D5E8690027C00008D4E86940F08050CD
:10297000E861E869012700F0805000905C48016838
:10298000C90513D40168834641F480710160FFF7E3
:10299000A5FA824606E000BFFFF7A0FAA0EB0A0006
:1029A00064284ED8DBF80000C005F5D5E0680128A2
:1029B0000AD008B1052813D0286A20F00100286247
:1029C000286A20F0040002E0286A40F00100286232
:1029D000E06841F2883B98B1FFF780FA82460BE04D
:1029E000286A40F004002862EEE700BFFFF776FA9D
:1029F000A0EB0A0159455AD8286A8007F6D50CE0A1
:102A0000FFF76CFA824605E0FFF768FAA0EB0A01CF
:102A100059454CD8286A8007F6D41FB1E86920F0E0
:102A20008050E861E06988B36968C1F381010229D7
:102A300044D00228C6F8608004D0FFF74FFA04465D
:102A400038E034E0FFF74AFA074604E0FFF746FAB9
:102A5000C01B02282BD828688001F7D4206AB0F563
:102A6000803F05D16868A16820F4003008436860A1
:102A7000D4E908010843696821F4741108436860C7
:102A8000C6F86090FFF72AFA044606E025E000BF8A
:102A9000FFF724FA001B022809D828688001F7D51F
:102AA0001BE000BFFFF71AFA001B022802D903201F
:102AB000BDE8F88F28688001F4D40EE00128F7D033
:102AC0006868226A00F48031914204D1616A00F49E
:102AD0007010884201D00120EAE70020E8E70000FA
:102AE00000100240000042428004424224000020C4
:102AF000007000407047704770B590F83C20012A84
:102B000026D0012480F83C40022280F83D20036852
:102B10005A689D6822F070060A6832435A600D4B6D
:102B200002689A4208D0B2F1804F05D00A4B9A420F
:102B300002D00A4B9A4204D1496825F08003194318
:102B4000916080F83D40002180F83C10084670BD3F
:102B5000022070BD002C014000040040000800402D
:102B600010B5040003D094F83D0010B107E0012037
:102B700010BD002084F83C00204600F01EF8022022
:102B800084F83D00211D206801F034FB012084F809
:102B9000460084F83E0084F83F0084F8400084F842
:102BA000410084F8420084F8430084F8440084F82B
:102BB000450084F83D00002010BD704790F83D109E
:102BC000012901D001207047022180F83D100168E1
:102BD000CA6842F00102CA6000680B49884208D006
:102BE000B0F1804F05D00949884202D00849884297
:102BF00004D1816801F00701062903D0016841F082
:102C00000101016000207047002C014000040040D9
:102C1000000800402DE9F0410D46040003D094F86F
:102C20003D0018B108E00120BDE8F081002084F8E3
:102C30003C00204600F040F8022084F83D00206867
:102C4000816844F2070291438160211D206801F0F0
:102C5000D1FA226890689169166A2B68AF690343BC
:102C600040F20330814341EA0721A868EF69084335
:102C70004FF6FC418843E96840EA07200143286990
:102C80002F6A000140EA0730084369686D6926F041
:102C9000220646EA0515294393602268906154F89C
:102CA000460B0162012004F81F09E0752076E076EA
:102CB0002077A0750020B7E700B585B0002100910E
:102CC00001910291039100680E49884217D10E4884
:102CD000816941F400618161816901F400610491BD
:102CE000816941F0040181618069694600F0040056
:102CF00004904FF4407000900448FEF7F9FF05B0CF
:102D000000BD0000002C01400010024000080140FE
:102D100070B590F83E60044690F83F5090F842300D
:102D200090F84320022021B104290ED0012E1BD19E
:102D300014E0012E18D1012B16D184F83E0084F83E
:102D4000420001220021206820E0012D0CD1012A3F
:102D50000AD184F83F0084F8430014E0012D03D128
:102D6000012B01D1012A01D0012070BD84F83E0061
:102D700084F83F0084F8420084F8430001220021D7
:102D8000206801F073FA01220421206801F06EFA34
:102D90002068016841F001010160002070BD7047AA
:102DA0002DE9F04104460068C66805694FF0000748
:102DB000A90713D5B10711D5F91E016101202077AC
:102DC000206880698007204602D0FFF7E8FF04E012
:102DD00000F07EF8204600F07CF82777680716D5CB
:102DE000700714D521686FF0040008610220207775
:102DF0002068806910F4407F204602D0FFF7CFFFA3
:102E000004E000F065F8204600F063F82777280713
:102E100015D5300713D521686FF00800086104202C
:102E200020772068C0698007204602D0FFF7B7FFEF
:102E300004E000F04DF8204600F04BF82777E80654
:102E400016D5F00614D521686FF01000086108202F
:102E500020772068C06910F4407F204602D0FFF739
:102E60009EFF04E000F034F8204600F032F82777A7
:102E7000E80708D0F00706D021686FF0010008616C
:102E8000204600F027F8280608D5300606D5216828
:102E90006FF0800008612046FFF72CFE680608D519
:102EA000700606D521686FF040000861204600F0EA
:102EB0001BF8A8060AD5B00608D521686FF02000D7
:102EC00008612046BDE8F041FFF715BEBDE8F0817E
:102ED0007047704700680349884201D1FFF7B4BAD0
:102EE000704700000008004070477047704710F8B6
:102EF000411F407808437047F8B5016804460868E8
:102F0000CA684B6910F00F0F4FF0000559D003F05D
:102F1000010602F49077374365D0C10705D0D1058B
:102F200003D5616C41F001016164410705D5D90702
:102F300003D0616C41F002016164810705D5D907B6
:102F400003D0616C41F004016164010707D502F010
:102F50002001314303D0616C41F008016164616C70
:102F600000293AD0800604D5900602D5204601F00B
:102F700012FA20684069616CC0F38010090700D420
:102F800060B3204601F0D2F920684069400621D59F
:102F90002068143050E8001F21F0400140E8001282
:102FA000002AF5D1E06BA8B16D494163E06BFEF7F3
:102FB00031FD002811D0E06B416B01B0BDE8F0405D
:102FC000084783060FD593060DD52046BDE8F84087
:102FD00001F0E1B92046FFF789FFF8BD2046FFF771
:102FE00085FF6564F8BD266B2023012E7CD1C606C3
:102FF0007AD5D60678D508684868009048694FF0B9
:103000000206400640D5E16B086840680004000CE9
:10301000E8D0A28D8242E5D9E085886920282DD0AC
:1030200020680C3050E8001F21F4807140E8001245
:10303000002AF5D12068143050E8001F21F001016A
:1030400040E80012002AF5D12068143050E8001F33
:1030500021F0400140E80012002AF5D184F8423006
:10306000256320680C3050E8001F21F0100140E873
:103070000012002AF5D1E06BFEF7A8FC6663A08D74
:10308000E18D401A81B22AE0A08DE18D401A81B213
:10309000E08D0028A6D00029A4D022680C3252E886
:1030A000000F20F4907042E80007002FF5D120684F
:1030B000143050E8002F22F0010240E80027002FD2
:1030C000F5D184F84230256320680C3050E8002F99
:1030D00022F0100240E80023002BF5D16663204661
:1030E000FFF703FFF8BDFFE705062BD5150629D529
:1030F00094F841002128F5D1A068B0F5805F01D196
:103100002069B0B1206A411C2162216800784860C2
:10311000E08C401E0004000CE084E3D12068C1680C
:1031200021F08001C1602068C16841F04001C160A8
:10313000D8E7206A0088C0F308004860206A801C35
:103140002062E5E74006CDD55006CBD5CA682046BB
:1031500022F04002CA6084F8413000F0DFF8C1E795
:103160008742000870B5040004D094F8410000259F
:1031700010B106E0012070BD84F84050204600F0F8
:1031800023F8242084F841002068C16821F400510C
:10319000C160204601F060F92068016921F4904186
:1031A00001612068416921F02A0141612068C168FC
:1031B00041F40051C1606564202084F8410084F826
:1031C00042006563002070BDF0B585B0002406465E
:1031D000009401940294039400682C49884253D1CE
:1031E0002B48C16941F48021C161C16901F480218A
:1031F0000491816941F0080181618069254D00F0E9
:10320000080004904FF48060009002200190032099
:10321000039069462846FEF76BFDE814CDE90004EB
:10322000694628460294FEF763FD1C4D1A48802724
:1032300001C5102091C5194845F810496C61AC6171
:10324000EC61FEF7DDFC08B1FEF7BEFBB5636E6214
:10325000124D114844351430C5E90004C5E9024750
:103260002C616C61AC612846EC61FEF7C9FC08B1C9
:10327000FEF7AAFBF5630022052127206E62FFF707
:103280007BF92720FFF76AF905B0F0BD0048004040
:1032900000100240000C01401C000240A001002070
:1032A0007047000070B5044690F84100202801D016
:1032B000022070BD49B342B32162A284E28400209F
:1032C0006064212384F84130A56B114BAB62A56B80
:1032D000104BEB62A56B104B2B63A36B58632568F7
:1032E00013462A1DA06BFEF7B9FC21686FF0400061
:1032F00008602068143050E8001F41F0800140E869
:103300000012002AF5D1002070BD012070BD000020
:10331000E1420008234300089742000870477047C5
:10332000FEE701684A69D24352050FD46FF4806208
:103330004A61002140F8301F2022427381730269E4
:1033400042F00402026101730120704700207047BF
:103350002DE9F84F0446C06A1E4693460D46216883
:103360000A6842F480620A60082807D0012805D064
:1033700010F5803F02D0206B112804D1206801682D
:1033800041F4807101604FF001195B46002249460B
:103390002046009600F0CCF84FF4007840B1206849
:1033A0000068C00501D5C4F840800320BDE8F88F4F
:1033B0002069DFF884A0B0F5804F0FD00620216887
:1033C00000EAD51747F0F000086133465A460AF183
:1033D0000601204600F0F4F858BB03E0E8B240F0E4
:1033E00001001CE02168E8B2086133465A465146A4
:1033F000204600F0E5F8E0B9206841698169009154
:10340000016841F4807101605B4600224946204614
:10341000009600F08DF80028C1D147F0F100216836
:10342000086133465A465146204600F0C9F8002844
:10343000BCD00120BAE7000002000100F8B5044644
:10344000C06A1E460D461746082807D0012805D039
:1034500010F5803F02D0206B122804D1206801684B
:1034600041F480710160134600224FF001112046A3
:10347000009600F05DF840B120680068C00502D5F4
:103480004FF4007020640320F8BD2069B0F5804F30
:103490000ED00620216800EAD51040F0F000086147
:1034A00033463A460B49204600F08AF878B902E0E4
:1034B00005F0FE0000E0E8B22168086105493346E6
:1034C0003A46891F204600F07BF80028DCD0012016
:1034D000F8BD00000800010070B516460D46044610
:1034E0001EE02046FFF71DFF08B1012070BD681CDB
:1034F00016D0FEF7F3FC801BA84200D885B92068DF
:103500004069C04340070BD5002044F8300F20210C
:103510006173A073216941F0200121612073E4E708
:1035200020684069C0434007DBD4002070BD000024
:103530002DE9F047984617460D460446C1F3074665
:10354000DDF820902AE000BFB8F1FF3F26D0FEF75B
:10355000C5FCA0EB0901414502D8B8F1000F1DD10F
:103560002068012E16D0806925EA00000004000CB6
:1035700012D00020B84211D1002044F8300F202191
:103580006173A073216941F0200121612073012042
:10359000BDE8F0874069E7E70120EBE72068012EEE
:1035A0000AD0806925EA00000004000C06D0002043
:1035B000B842C9D00020EBE74069F3E70120F7E704
:1035C0002DE9F047984616460D4604464FF000098F
:1035D0004FF0200AC1F3074723E020684069C04349
:1035E000400515D42068016841F40071016021682C
:1035F0006FF480604861C4F8309084F83DA084F88E
:103600003E90216C41F00401216484F83C9021E05B
:10361000701C06D0FEF762FCA0EB0800B04203D895
:1036200016B1012F1FD021E02068012F15D080692D
:1036300025EA00000004000C18D000BF44F8309FB9
:1036400084F80DA084F80E90216941F020012161D9
:1036500084F80C900120BDE8F087406925EA00005D
:103660000004000CEAD12068406901E0206880690C
:1036700025EA00000004000CAFD1ECE72DE9F04191
:10368000002590460E460446202728E04069C043A6
:10369000C0060CD454F8301B6FF01000486144F899
:1036A00010596777A577206A2062257714E0FEF726
:1036B00015FCA0EB0800B04200D886B9206840692C
:1036C000C04340060BD544F8305F6773A57320698B
:1036D00040F02000206125730120BDE8F0812068C2
:1036E0004169C9434906D1D40020F6E770B51646B2
:1036F0000D4604461EE02046FFF713FE08B10120E8
:1037000070BD681C16D0FEF7E9FB801BA84200D8EC
:1037100085B920684069C04300060BD5002044F8F5
:10372000300F20216173A073216941F020012161D4
:103730002073E4E720684069C0430006DBD4002022
:1037400070BD000001480068406A70471001002009
:1037500010B53C210448FFF7DBFA034947F6FF7038
:103760000968486210BD00001001002000B5FFF795
:10377000E9FF0146002047F6FF72B1F5004F01D383
:10378000022002E0914200D20120024909684A6207
:1037900000BD0000100100200D4808B5416941F04E
:1037A000010141614069002200F001000090052103
:1037B0000C20FEF7E1FE0C20FEF7D0FE00220521D2
:1037C0000D20FEF7D9FEBDE808400D20FEF7C6BE6D
:1037D0000010024010B5144801F06FF8134C124A63
:1037E00004216061183A102000F0DEFF0E4A2061CB
:1037F000A83A00210E4801F0B5F80B4A2060843A3F
:1038000000210C4801F0AEF8074A6060603A0021E0
:10381000094801F0A7F8044AA0603C3A0021074893
:1038200001F0A0F8E06010BD207500080000002045
:10383000553F00086140000819400008A13F0008FA
:1038400000B585B00020019003900D48816941F0DA
:1038500004018161816901F004010491816941F0F1
:10386000080181618069694600F008000490062023
:103870000090012002900348FEF73AFA05B000BD1F
:1038800000100240000801400D4810B50B490160CE
:103890000C49416000214FF480428160C0E903126D
:1038A00041618161C1610162FEF71EFB002803D006
:1038B000BDE81040FEF788B810BD0000005400407D
:1038C000BC000020A086010010B58CB02421684601
:1038D000FCF7ADFE00241748099415490A940160CD
:1038E0000121C0E901144FF6FF72C0E903244461CD
:1038F00084610220CDE90010CDE902140F22CDE948
:103900000420CDE90614089269460A48FFF782F9B7
:1039100008B1FEF759F8099409A906480A94FFF777
:10392000EBF8002801D0FEF74FF80CB010BD0000F6
:10393000002C0140100100200C4810B50A4901601C
:103940004FF416514160002181600C22C160C0E932
:1039500004128161C161FFF705FC002803D0BDE8B6
:103960001040FEF731B810BD00480040580100205B
:10397000FEE7FEE72DE9F84F044617463D481E4690
:103980000D46BC4210D1B5420AD945702E461D469F
:1039900006E0294620460A9A00F020FA6D1CEDB296
:1039A000B542F6D9BDE8F88FB5420FD1BC420AD96D
:1039B00044702746144606E0294620460A9A00F03D
:1039C0000DFA641CE4B2BC42F6D9EBE7381B711B5C
:1039D000002801DD012300E000234FF0FF3202EB5D
:1039E00043030093002901DD012300E00023A846E2
:1039F000002502EB430B002800DA404281460029F3
:103A000000DA49428A46D14516DC2FE008F0FF0172
:103A1000E0B20A9A00F0E2F905EB0A0005B2B9EB50
:103A2000450F06DC08EB0B000FFA80F8A5EB090048
:103A300005B20098204404B2BC42E7D1B2E700BF0F
:103A400008F0FF01E0B20A9A00F0C8F905EB09009E
:103A500005B2BAEB450F05DC0098204404B2A5EB93
:103A60000A0005B208EB0B000FFA80F8B045E7D169
:103A700098E70000A800002010B56420FEF726F9A2
:103A8000AE2000F0E3F8D52000F0E0F8802000F050
:103A9000DDF8A82000F0DAF83F2000F0D7F8D320B6
:103AA00000F0D4F8002000F0D1F8402000F0CEF86B
:103AB0008D2000F0CBF8142000F0C8F8202000F092
:103AC000C5F8022000F0C2F8A12000F0BFF8C8201D
:103AD00000F0BCF8DA2000F0B9F8122000F0B6F8D7
:103AE000812000F0B3F87F2000F0B0F8D92000F07A
:103AF000ADF8F12000F0AAF8DB2000F0A7F8402094
:103B000000F0A4F8A42000F0A1F8A62000F09EF890
:103B1000BDE81040AF2000F099B800004FF480617C
:103B20000148FCF762BD0000C51B00203CB51C78B5
:103B3000059D203ACDE900455D68E41D5B78E40809
:103B4000544303FB045200F0E1F83CBD2DE9F84179
:103B50001E46154688460446079F09E033464146FF
:103B600020460097FFF7E2FF70786D1C2044C4B236
:103B70002A78002AF2D1BDE8F8812DE9FF4F1878A4
:103B80005978C01DC00800254843001D83B01C465D
:103B9000174600F0FF0A2AE07819814600F0BFFCC2
:103BA0005FEA000826D000260AE06168484606FB66
:103BB0000A1B42465946FCF780FCF0B1761CF6B26F
:103BC000207AB042F1D810980090E368B8F1010F64
:103BD00020D0DDE903012022FFF7A8FFE06841784B
:103BE00003980844C0B2039005EB080085B2785DE5
:103BF0000028D1D107B0BDE8F08F10992078CDE929
:103C000000016378DDE903010BF1040200F07EF8A6
:103C10006178E5E77A5DDDE90301FFF787FFE0689A
:103C20006D1CADB2417803980844C0B20390DEE742
:103C300008B54FF0FF3200920B4602467821024849
:103C4000FEF73EFB08BD0000BC00002002494870A2
:103C500002210148FFF7ECBFAA0000202DE9FC413A
:103C600080460720CDE9000301F00704CD08164681
:103C700002FA04F01F46C2B223464146284600F02D
:103C800089F8002C0CD0601EC0B2CDE90007C4F149
:103C9000080026FA00F2681C0023414600F07AF87A
:103CA000BDE8FC812DE9FC4301F007061446CD0870
:103CB0009846814601F0070106EB080204FA01F07C
:103CC000099F082A16D90721CDE90017C2B2334649
:103CD0004946284600F05EF808EB06000938C0B2F5
:103CE000CDE90007C6F1080024FA00F2681C0023A1
:103CF000494607E0521ED1B2CDE90017C2B23346A1
:103D00004946284600F046F8BDE8FC832DE9FF4F00
:103D100082B01D460F989346C70800F007008846FA
:103D20000026019018E0029800240BEB060A00EB35
:103D300006090DE004FB05F0109B10F80A2008EBC3
:103D4000C400C1B209F0FF00FFF788FF641CE4B2B1
:103D5000BC42EFD3761CF6B2AE42E4D30198002801
:103D600015D005FB07F6002408EBC7070DE01098F7
:103D70000090311902981BF801202044F9B2C0B21A
:103D8000019BFFF78FFF641CE4B2AC42EFD306B097
:103D9000BDE8F08FF0B50828DDE9056419D2802967
:103DA00017D20CB1D243D2B2FF25761C05FA06F623
:103DB000C3F10803084F46EA0204DD4007EBC017D1
:103DC000044B785CB2432C43AA4320401A70104342
:103DD0007854F0BDA8000020C51B002030B5802815
:103DE0000ED240290CD201F007040123064DA34056
:103DF000C90805EBC111002A0A5C02D09A430A5493
:103E000030BD1A43FBE70000C51B002070B5104D04
:103E100040200024287005F1810600BF04F1B000A5
:103E2000C0B2FFF713FF0220FFF710FF1020FFF7CB
:103E30000DFF06EBC4118022681CFCF789FB812171
:103E40000348FFF7F5FE641CE4B2082CE6D370BD0E
:103E5000441B002004484178491CC9B24170032921
:103E600001D1002141707047B80000200349487813
:103E700010B1401E487070470320FBE7B8000020D7
:103E80000348817811B10021817070470121FBE75F
:103E9000B800002004480178491CC9B20170022909
:103EA00001D1002101707047B8000020FEB5064620
:103EB0000F46642001F072F90290051E2DD038469D
:103EC00003F06EF8044603F087F8394603F0E1F991
:103ED00010F1FF4F01D380F00040104903F0DCF8EF
:103EE0004FF07C5102F0E8FF03F05AF80A2802DD97
:103EF0000020641C02E0002800DA0020CDE9004028
:103F0000334607A264212846FCF7D0F91048002365
:103F10001A4602A9006800F073FCFEBD00002041B3
:103F20007B2274797065223A227761726E696E67BE
:103F3000222C22726561736F6E223A222573222C25
:103F4000202276616C7565223A25642E25647D00F9
:103F50001000002008B5104C4FF0FF352B46002212
:103F60006946206800F0EEFB00980028F6D0FCF7C8
:103F7000D0FA82B209480099FFF794F90748FEF792
:103F8000B6FF202803D0012000F0A1FBF6E700983F
:103F900001F08EFBE2E70000100000205801002035
:103FA000FFF7D6FB194E1A4C1A4D4FF0FF3700BFE2
:103FB00000F030FB08B1FFF76DFF3078012821D108
:103FC00000F04CFB08B1FFF75BFFFFF7CFFB217858
:103FD00011B101290BD015E0012802D0022803D02D
:103FE00010E0FFF743FF0DE0FFF734FF0AE0012880
:103FF00002D0022802D005E0394600E001212878ED
:10400000FDF70EFC0A2000F062FBD1E7B8000020AB
:10401000BA000020B9000020FFF72EFD0E4D4FF032
:10402000FF360E4CFFF77AFD287810B1012805D134
:1040300002E001F03FF901E001F0B0F931462068FB
:1040400000F012FCFFF7E2FE206800F06AFC0A2094
:1040500000F03DFBE6E70000B8000020140000205F
:1040600086B0FDF79DFC264D4FF0FF3421462868B1
:1040700000F0FAFBFDF71AFB286800F052FCA1469D
:10408000DFF88080204C4FF47A7A4946286800F0A7
:10409000EBFB211D1C48FDF729FB286800F041FCC3
:1040A0001AA046460090D6E900121BA32068FDF72F
:1040B00078FB07461BA00090D6E902211DA360688B
:1040C000FDF76FFB384410F0FF0F15D1606802F068
:1040D000C7FE06460F46206802F0C2FE8DE8C30008
:1040E00018A264210498FCF7E1F8234800231A463B
:1040F00004A9006800F084FB504600F0E8FAC4E729
:1041000014000020C81F0020B00000206D6178520C
:104110006561736F6E0000006D696E526561736F4B
:104120006E00000068756D69646974795F6869671D
:104130006800000068756D69646974795F6C6F77F9
:10414000000000007B2274797065223A226F6B2296
:104150002C2274656D7065726174757265223A22E5
:10416000252E3166222C202268756D696469747968
:10417000223A252E31667D001000002010B54FF048
:10418000E020006902F00CF9012803D0BDE81040DE
:1041900001F0B4BC10BD10B590B028216846FCF702
:1041A00046FA14210AA8FCF742FA022000900120E6
:1041B000049010200024059007946846FEF70AFB3F
:1041C00008B172B6FEE70F20CDE90A040C940D94F5
:1041D00000210AA80E94FEF701FA002801D072B659
:1041E000FEE710B010BD70470148FEF7D9BD0000D2
:1041F00028020020F0B50268194B1A4C1A4D4FF0F6
:104200008047984205D0B84203D0A04201D0A842CE
:1042100003D122F070064A683243984205D0B84272
:1042200003D0A04201D0A84203D122F44074CA684E
:1042300022434C6922F08002224302608A68C262F3
:104240000A688262984201D10969016301214161D2
:104250000169C90703D0016921F001010161F0BDC5
:10426000002C0140000400400008004010B501F09F
:104270001F030121046A99408C430462016A9A4039
:104280001143016210BD10B5406A0021C185C1848F
:10429000FEF72CFE10BD70B5446A2068406994F8A2
:1042A0004110C0F3C0100025212904D118B1E584C4
:1042B000204600F062F82068406994F84210C0F38C
:1042C0008010222904D118B1E585204600F02EF88F
:1042D000606C40F0100060642046FEF707FE70BD81
:1042E00010B50146406A09680968890616D400219C
:1042F000C1840168143151E8002F22F0800241E8A6
:104300000023002BF5D101680C3151E8002F42F059
:10431000400241E80023002BF5D110BDFEF7FEFF5F
:1043200010BD10B5406AFEF7FAFF10BD01680C31F0
:1043300051E8002F22F4907241E80023002BF5D1C0
:104340000168143151E8002F22F0010241E80023F6
:10435000002BF5D1016B012909D101680C3151E81D
:10436000002F22F0100241E80023002BF5D120217C
:1043700080F8421000210163704701680C3151E858
:10438000002F22F0C00241E80023002BF5D12021AC
:1043900080F84110704708B590F84210222901D0EA
:1043A000022008BD82684FF480539A4201D101690E
:1043B00021B1816A9A421BD04AB10AE00268816A3F
:1043C0005268C2F308020A80816A891C08E0026907
:1043D00072B10268526802F07F020A70816A491C59
:1043E0008162C18D491E0904090CC18503D01BE0FF
:1043F00002685268F1E70168CA6822F02002CA60C8
:104400000168CA6822F48072CA6001684A6922F0B1
:1044100001024A61202180F8421000214163026BB1
:10442000012A03D0FEF73CFF002008BD01630168AC
:104430000C3151E8002F22F0100241E80023002B3C
:10444000F5D101680A68D20602D50A684968009168
:10445000818DFEF74AFDE7E770B504460068016903
:10446000E26821F44051114301612169A0680843C9
:10447000616908432168CA6841F20C639A430243A8
:10448000CA6020684169A26921F440711143416109
:104490001E492068884202D1FEF766F901E0FEF766
:1044A00053F900EBC00101EB001260686421800049
:1044B000B2FBF0F3B3FBF1F36FF018067343B2FBFA
:1044C000F0F5B2FBF0F605EB8305322303EB05159F
:1044D000B5FBF1F5B6FBF1F605F0F00505EB0615B9
:1044E000B2FBF0F6B2FBF0F0B0FBF1F06FF01802A7
:1044F000504306EB800003EB0010B0FBF1F02168A5
:1045000000F00F002844886070BD000000380140B2
:104510000148FEF7F1BC000058010020FEE70078DA
:10452000010601D4012070470621B1EB501F01D1D3
:10453000022070470E21B1EB101F01D103207047FC
:104540001E21B1EBD00F01D104207047002070472D
:10455000490050EAC12018BF04204A0D18BF40F09E
:10456000010040F2FF72B2EB515F08BF40F0020061
:10457000012808BF052070470907090E002804DB41
:1045800000F1E02080F80014704700F00F0000F107
:10459000E02080F8141D704730380A2801D201202D
:1045A000704700207047000070B514460D4606465F
:1045B00002F0F6FC286002F00FFD314602F069FEC1
:1045C00010F1FF4F01D380F000400B4902F064FD71
:1045D0004FF07C5102F070FC02F0E2FC0021206000
:1045E0000A2804DD21602868401C286070BD00286E
:1045F000FCDA216070BD00000000204170B5144657
:104600000D46FBF786FFC0B26043A5EB5000C0B279
:1046100070BD000070B50F4D02212846FDF758FC13
:104620000D4C48B9207848B90A2000F050F8022112
:104630002846FDF74DFC50B1207830B102212846C4
:10464000FDF746FC08B100202070002070BD01205D
:10465000207070BD00080140AC00002070B50F4D07
:1046600004212846FDF734FC0D4C48B9607848B960
:104670000A2000F02CF804212846FDF729FC50B14F
:10468000607830B104212846FDF722FC08B10020F3
:104690006070002070BD0120607070BD0008014096
:1046A000AC000020FDF7D8FEFFF775FDFFF7C8F856
:1046B000FFF772F8FFF7E8F8FFF73EF9FFF704F9A4
:1046C00000F012F8FFF786F800F020F8FEE710B5CA
:1046D000EFF3058111B16FF0050403E0002408B188
:1046E00001F08AF8204610BDEFF3058010B16FF09D
:1046F000050070470448016811B14FF0FF30704762
:1047000001210160002070477800002010B5EFF310
:10471000058010B16FF0050010BD0848016801293F
:1047200002D04FF0FF3010BD054A002182F8141D61
:104730000221016001F010F9002010BD7800002076
:104740000BE000E0F8B51D466FF003026FF00206C3
:104750004FF00004EFF30583A3B1F0B1E9B1E5B97F
:10476000002200926A4601F059FC012817D10098F6
:10477000B0B10C494FF080500860BFF34F8FBFF3CA
:104780006F8F0DE048B141B12A4601F0ABFB012823
:1047900006D025B16FF0010402E0144600E0344673
:1047A0002046F8BD04ED00E0F8B514464FF00005D2
:1047B000EFF3058212BB08B301B3A4B1D4E902320E
:1047C00063B1502A1AD32269C2B1676900FB01F6AE
:1047D000B74213D3009501F0E0F907E072B92269FE
:1047E00062B9626952B9002201F0B6F9050005D03C
:1047F0000CB1216800E0002100F0C8FF2846F8BD98
:10480000F8B51D466FF003026FF002064FF000048A
:10481000EFF30583ABB100B3F9B1F5B9002213464C
:1048200000926A4601F0E0FA012818D10098B8B168
:104830000C494FF080500860BFF34F8FBFF36F8F6C
:104840000EE050B149B100232A4601F01DFA0128BB
:1048500006D025B16FF0010402E0144600E03446B2
:104860002046F8BD04ED00E02DE9F0410D4601467B
:1048700021F0010001F001014FF00004EFF3058287
:104880000AB1A41F16E048B100296FF001066FF0CD
:104890000207294608D001F0CBFC07E06FF00304C3
:1048A00008E035B1344605E001F006FC0128F8D1F6
:1048B00000E03C462046BDE8F08170B505464FF06B
:1048C0000004EFF3058050BB0DB1686800E00020E4
:1048D000C10701D0012600E0002600071FD46DB1FA
:1048E000D5E9021021B1502819D31EB1042002E0ED
:1048F00020B114E0012001F022F905E00EB10420FE
:1049000000E0012001F010F9040008D00DB1296881
:1049100000E0002100F03AFF0EB144F0010420460F
:1049200070BD70B5014621F0010001F001014FF0AA
:104930000004EFF305820AB1A41F11E028B16FF063
:10494000020529B101F0AFFA07E06FF0030407E0B8
:1049500000231A46194601F097F9012800D02C4689
:10496000204670BD2DE9FF414FEA01034FF00005DD
:10497000EFF30581039549BB40B38027182100243C
:104980004AB3166806B1344696691EB13146761EA2
:10499000382E02D21679F60703D0002004B0BDE805
:1049A000F081566906B1B708D2F808C0BCF1000F13
:1049B0000DD0D5685C2D18D312693AB136B18DE8A7
:1049C00006103A46214601F0BAFC03900DE0D66885
:1049D0005EB912694AB903AACDE90012BAB22146FA
:1049E00001F080FC012800D003950398D6E7000071
:1049F0002DE9F041134C0F460546E6682068001D7E
:104A000000F0C6FD681C07D137B12168BDE8F04150
:104A10000D48091D00F00CBE20683544B5424560C4
:104A2000216805D2A06BBDE8F041091D00F0E8BD8A
:104A3000606B091D00F0E4FDA06A854200D2A5620A
:104A4000BDE8F08128000020600700202DE9F0413A
:104A5000054600F0F9FD2D4CA068401CA0602068C0
:104A60002B4F10B1606930B32BE02560A06801289E
:104A700027D1002606EB860007EB800000F0B2FD90
:104A8000761C382EF6D3234800F0ACFD21481430B4
:104A900000F0A8FD1F48283000F0A4FD1D483C3060
:104AA00000F0A0FD1B48503000F09CFD19486063E9
:104AB0001430A06305E02068E96AC06A884200D823
:104AC0002560606A401C60626864E86A2169884207
:104AD00000D9206100EB800007EB8000291D00F069
:104AE000A7FD00F0D1FD606900280CD02068E96ABC
:104AF000C06A884207D208494FF080500860BFF36F
:104B00004F8FBFF36F8FBDE8F081000028000020B9
:104B1000B00200201007002004ED00E038B500F0DE
:104B200093FD104C2068C8B90F4800F05BFD0E489B
:104B3000143000F057FD0C48E060143020610A4B3F
:104B40000020F03B009003F1500210210A2001F0F8
:104B500024F8206010B105A100F018FEBDE838402F
:104B600000F092BD6400002064080020546D725172
:104B70000000000030B4026C0B46002A0BD0C16864
:104B80001144C1608468A14201D30168C16030BC96
:104B90001846FBF7DDBC30BC70472DE9F041856B52
:104BA000174604460026026C82B1C7B1E068FBF7E5
:104BB000CFFCE168206C091AE1602268914202D2C0
:104BC000A168081AE060022F16D017E02068A8B983
:104BD000A06801F05DFC06460020A0600EE0606861
:104BE000FBF7B6FC216C606808446060A1688842ED
:104BF00004D32068606001E005B16D1E6D1CA563E3
:104C00003046BDE8F08110B5044690F8590058B11F
:104C100001280CD002280FD0502080F31188BFF358
:104C20004F8FBFF36F8FFEE7206B00F041FD2046F2
:104C3000BDE8104000F03CBD10BD000010484FF42E
:104C40004061420706D0C01D0D4920F00700411AFF
:104C5000C1F540610B4A00230144C2E90003083951
:104C6000183A21F0070111604B600B600B1AC0E984
:104C7000001393604FF00040536050617047000094
:104C8000440F002094000020144E154CA6F29C47BF
:104C90004FF08058DFF84C9012E000BF00F0D4FCD9
:104CA000F068C568281D00F073FCA068401EA06075
:104CB0006068401E606000F0E7FC2846FFF7A3FF35
:104CC00060680028EAD138680128F9D9C9F800805D
:104CD000BFF34F8FBFF36F8FF2E700004C07002048
:104CE0002800002004ED00E0002807D000218160AA
:104CF00001600B460A46C16000F0C6BF7047000065
:104D000070B51D46049C51B1C4F80020C4E90F01E0
:104D10000121204600F074FF84F84C5070BD2460DF
:104D2000F4E700002DE9F05F8846DDE90B941546B5
:104D3000834691009A460A9EA522206BFBF74DFC04
:104D40006FF00301206B01EB8501084420F0070799
:104D5000780707D0502080F31188BFF34F8FBFF33F
:104D60006F8FFEE70025B8F1000F0FD05FF0000055
:104D7000221818F8001082F8341018F8001011B139
:104D8000401C1028F4D384F8435001E084F83450D8
:104D9000382E00D33726E662C4E91365201D00F0E3
:104DA0002CFC04F1180000F028FC2461C6F1380046
:104DB0006462A061656584F8585052465946384689
:104DC00000F066FA2060B9F1000F01D0C9F8004088
:104DD000BDE8F09F30B5114900E011460A688242F3
:104DE000FBD34B685C18844203D140681844486088
:104DF000084643681C18944209D1084C183C2468A2
:104E0000A24209D052681A4442600A6812680260DD
:104E1000814200D0086030BD0460F9E794000020B2
:104E200070B5002441600B4D0061914206D8D11A43
:104E30008269914206D2011D286907E09A4203D295
:104E4000994201D3012403E0011DE86800F0D8FB7A
:104E5000204670BD6400002010B5044600F0F4FB4D
:104E6000A06B28B15FF0000400F00EFC204610BDDE
:104E70000124F9E730B589B03C4D6EE00498002874
:104E800006DADDE90601059A90470498002864DBFC
:104E9000069C606910B1201D00F07AFB03A800F0A9
:104EA000D7F8024604980A2857D2DFE800F0050533
:104EB000052D334A05052D3394F8280040F00100F4
:104EC00084F828000599A069059B01442046FFF756
:104ED000A7FF68B3216A2046884794F82800400756
:104EE0003BD5002000900598A1690023421819467F
:104EF000204601F013FCD8B9502080F31188BFF38D
:104F00004F8FBFF36F8FFEE714F8280F20F00100DA
:104F1000207022E094F8280040F0010084F8280076
:104F20000598A06128B1811813462046FFF778FF45
:104F300013E0502080F31188BFF34F8FBFF36F8FC2
:104F4000FEE794F82800810703D4204600F0B0FB68
:104F500003E020F0010084F82800002204A928685A
:104F600000F0C0FF002889D109B030BD64000020E6
:104F70002DE9FC410F46054600F032FD01A800F086
:104F800067F80446019818B101F036FBBDE8FC81D2
:104F9000254EAFB130690068D0B30027291B3A46CF
:104FA000306800F007FC01F027FB0028EED11F4914
:104FB0004FF080500860BFF34F8FBFF36F8FE5E76E
:104FC000A542EBD801F018FBF0682746C068C4681A
:104FD000201D00F0DDFA94F82800410719D5A069DA
:104FE0002B4641193A462046FFF71AFFA8B1002088
:104FF0000346014600902A46204601F08FFB60B927
:10500000502080F31188BFF34F8FBFF36F8FFEE7FF
:1050100007E020F0010084F82800216A2046884734
:10502000B4E70127BAE700006400002004ED00E0C7
:105030000648416B096829B1416BC968C96849686C
:10504000816270474FF0FF31FAE70000280000202E
:1050500070B5054601F0B2F9064E0446B0688442C8
:1050600003D200F009F8012000E00020286020466B
:10507000B46070BD64000020F8B5194D20E0C06830
:10508000C4680668201D00F083FA216A204688471C
:1050900094F82800400713D5A0693044B04206D9DF
:1050A00024616060211DE86800F0AAFA08E0002091
:1050B0000346014600903246204601F02FFB38B1EE
:1050C000E86801680029DAD12969C5E90310F8BD4B
:1050D000502080F31188BFF34F8FBFF36F8FFEE72F
:1050E0006400002008484068401C4FF0500080F3E6
:1050F000118804D0BFF34F8FBFF36F8FFEE7BFF36C
:105100004F8FBFF36F8FFEE79C000020074CE068D5
:10511000016841B1C0680021D0F80000FFF728FF06
:10512000FFF7A8FEF3E701210020F7E76400002065
:105130002DE9F041044600F087FA94F9455004F156
:10514000240609E0606A48B1304601F01DFA08B152
:1051500000F080FB6D1E6DB2002DF3DC4FF0FF36CA
:1051600084F8456000F090FA00F06EFA94F944502B
:1051700004F1100709E0206948B1384601F004FA4B
:1051800008B100F067FB6D1E6DB2002DF3DC84F8F2
:105190004460BDE8F04100F077BA00002DE9F0412D
:1051A0000546002700F01CFC324E306808B9FFF7B6
:1051B00045FD706905424ED1C5B3083568070ED06C
:1051C00005F00700C0F108000544680707D050202B
:1051D00080F31188BFF34F8FBFF36F8FFEE72DB3BE
:1051E0007068854237D82348183001460C6801E0C2
:1051F00020460C466168A94202D221680029F7D1F5
:1052000031688C4227D007682168016060680837E0
:10521000411B10290FD96019420708D0502080F394
:105220001188BFF34F8FBFF36F8FFEE713E041602C
:105230006560FFF7CFFD61687068401A7060B26802
:10524000904200D2B060706901430020C4E90001BF
:10525000F068401CF06001F0CFF9780707D05020CB
:1052600080F31188BFF34F8FBFF36F8FFEE738468F
:10527000BDE8F0817C0000200449086818B1086886
:10528000026D521C0265086870470000280000206B
:1052900010B5031F4FF080741C601B1F21F001012B
:1052A0001960191F024B0B60143940380A6010BD99
:1052B000E550000870B588B00124274B27A20021D3
:1052C0001E200094FEF742FC234B28A20E21092049
:1052D0000094FEF73BFC274E02AA01A93068FFF7B5
:1052E00063F9DDE9012324A103A8FAF7CBFF062225
:1052F000152103A8FFF782F9DDE90123054620A166
:1053000003A8FAF7BFFFAD1FE8B200251E4B03AAA2
:105310001A210095FEF731FC0F4B1CA20E21342000
:105320000094FEF713FC02AA01A97068FFF73CF98C
:10533000DDE9012317A103A8FAF7A4FF0622402103
:1053400003A8FFF75BF9104B03AA1A210095FEF79B
:1053500014FC08B070BD0000D079000820536D61C6
:105360007274204661726D200000000077656E64E3
:1053700075000000B000002025642E2564000000A8
:1053800025642E2564A1E600D07B0008736869645B
:105390007500000025642E25642525002DE9F04FB9
:1053A00093B000240120009025462646644B65A258
:1053B00021461920FEF7CAFBDFF8909110AA4F464C
:1053C0000FA9D9F80400FFF7EFF812AA11A938685D
:1053D000FFF7EAF8DDE91101CDE90001DDE90F236E
:1053E0005BA102A8FAF74EFF02A8FBF792F8801E15
:1053F00000EB400040064FEA10684FF0400AAAEB6D
:105400005800C7B2A346584B02AA0E213846CDF821
:1054100000B0FEF7B2FB5548007810B101280BD060
:105420001FE0DDE90F234EA102A8FAF72BFF02A827
:10543000FBF76FF83C460FE0DDE9112348A102A815
:10544000FAF720FF02A8FBF764F807EB0801A0EBCE
:10545000800201EB4201CCB200EB40004006050E99
:1054600019264F4610AA0FA9D9F80C00FFF79CF88F
:1054700012AA11A9B868FFF797F8DDE91101CDE983
:105480000001DDE90F233AA102A8FAF7FBFE02A80A
:10549000FBF73FF8801E00EB400040064FEA106823
:1054A000AAEB5800C7B2D9462F4B02AA1F21384693
:1054B000CDF800B0FEF761FB2C480078022802D03E
:1054C00003280BD01FE0DDE90F2325A102A8FAF77E
:1054D000D9FE02A8FBF71DF83C460FE0DDE91123D9
:1054E0001FA102A8FAF7CEFE02A8FBF712F807EBFD
:1054F0000801A0EB800201EB4201CCB200EB4000BE
:105500004006050E2A26002D17D01F4800780128D6
:105510000AD11E480A220178491CB1FBF2F302FBB2
:1055200013110170052908D26019C2B23346194619
:105530002046CDF80090FEF71DFA13B0BDE8F08FBD
:10554000D079000862616F6A696E6700C81F002029
:1055500025642E2564203C2077656E6475203C20F0
:1055600025642E2564000000D07B0008B9000020CF
:1055700025642E2564203C207368696475203C20D6
:1055800025642E2564000000BA000020AE00002033
:10559000D0E9013201699A60D0E901235A604A6872
:1055A000824201D182684A60002202610868401E7E
:1055B0000860086870470000034B036003F15C005B
:1055C00008608020106070478C080020044B036046
:1055D00003F15C0008604FF48070106070470000B9
:1055E000E80A002000F108014FF0FF32C0E9011283
:1055F000C1600161002101607047002101617047B5
:1056000030B50B685A1C02D000F1080202E00269B2
:1056100004E02246546825689D42FAD953684B60DD
:1056200099608A60516008610168491C016030BD61
:1056300042684A6093688B60936859609160086122
:105640000168491C01607047502080F31188BFF346
:105650004F8FBFF36F8F0A494868401C486001288C
:105660000CD10848006810F0FF0F07D0502080F3DD
:105670001188BFF34F8FBFF36F8FFEE770470000B5
:105680009C00002004ED00E00849486828B1401E55
:10569000486001D180F311887047502080F3118851
:1056A000BFF34F8FBFF36F8FFEE700009C00002019
:1056B00070B500282AD0164DA0F108046068696909
:1056C000084207D1502080F31188BFF34F8FBFF3FA
:1056D0006F8FFEE722683AB1502080F31188BFF344
:1056E0004F8FBFF36F8FFEE78843606000F078F95B
:1056F00060686968084468602046FFF76BFB2869AA
:10570000401C2861BDE8704000F076BF70BD00000D
:105710007C0000204FF0E0200021016181610549FB
:105720004FF47A720968B1FBF2F1491E4161072119
:10573000016170472400002010B5FAF77FFD114980
:1057400010280ED300F1E02090F8F0030A78904280
:1057500007D2502080F31188BFF34F8FBFF36F8FB4
:10576000FEE709480068896800F4E060884207D9CC
:10577000502080F31188BFF34F8FBFF36F8FFEE788
:1057800010BD00009C0000200CED00E010B5084B9F
:10579000002200BF53F832401CB1521C082AF9D332
:1057A00010BD43F8321003EBC201486010BD000089
:1057B0007002002070B515460E460446FFF744FF00
:1057C00094F944100020491C01D184F8440094F954
:1057D0004510491C01D184F84500FFF755FFA06B27
:1057E00028B92A46314604F1240000F051F8204639
:1057F000BDE87040FFF79CBC10B5020014D00F4804
:10580000006B38B1502080F31188BFF34F8FBFF386
:105810006F8FFEE700F0E4F800211046FFF7E8F88C
:1058200000F0EAFE002807D105494FF080500860DB
:10583000BFF34F8FBFF36F8F10BD00002800002013
:1058400004ED00E002490A6A0260C96841607047DD
:105850002800002001490120C8617047280000206D
:1058600010B50C4650B1094909681831FFF7C8FE58
:105870002046BDE810400121FFF7BAB8502080F360
:105880001188BFF34F8FBFF36F8FFEE72800002012
:1058900070B514460D4668B10A4909681831FFF71A
:1058A000C7FE0CB14FF0FF3521462846BDE87040D9
:1058B000FFF79EB8502080F31188BFF34F8FBFF3DE
:1058C0006F8FFEE72800002070B504003ED0226DE7
:1058D000A2B1E06C884200D30146E06A884235D02C
:1058E000012A33D11A4D2A6894420FD1502080F3F7
:1058F0001188BFF34F8FBFF36F8FFEE7502080F307
:105900001188BFF34F8FBFF36F8FFEE7E162A2698B
:10591000002A02DBC1F13801A1610E4E00EB8000CC
:10592000616906EB8000814210D1201DFFF730FE37
:10593000E06A2969884200D9286100EB800006EB03
:105940008000211DBDE87040FFF772BE70BD0000F1
:1059500028000020B002002030B587B00024039456
:1059600005AA04A903A80494FFF726FEDDE90301B4
:105970000094CDE90110002315A11748059A00F005
:10598000DEFC164D0028E8621FD000F097FE0128CB
:1059900009D0401C19D1502080F31188BFF34F8FDC
:1059A000BFF36F8FFEE7502080F31188BFF34F8F56
:1059B000BFF36F8F4FF0FF30A86201206861EC6089
:1059C00007B0BDE8304000F045B807B030BD00007A
:1059D00049444C4500000000894C00082800002084
:1059E0000248016B491C0163704700002800002039
:1059F000164810B5016B11B10121C16110BD002124
:105A0000C1610169124A01E0B9B1491E01EB81038C
:105A100052F82330002BF7D001EB810302EB830215
:105A200002F1080453685B685360A34201D15B68CC
:105A30005360DA680260016110BD502080F3118864
:105A4000BFF34F8FBFF36F8FFEE7000028000020E9
:105A5000B00200201CB5264908780190FF2008708C
:105A600008788DF800009DF800009DF8002000F0F7
:105A7000F000904207D0502080F31188BFF34F8F81
:105A8000BFF36F8FFEE79DF800001A4C00F0500046
:105A900020700720A06005E09DF8002052008DF8DE
:105AA0000020401E9DF800201206F5D4A0600328B7
:105AB00007D0502080F31188BFF34F8FBFF36F8F53
:105AC000FEE74FF44070A060019808700A48016832
:105AD00041F470010160016841F070410160FFF71D
